:100000000C945A020C94A1020C94A1020C94A1022B
:100010000C94A1020C94A1020C94A1020C94A102D4
:100020000C94A1020C94A1020C94D1180C948D187C
:100030000C940D1E0C94A1020C94A1020C94A1022C
:100040000C94A1020C94A1020C94A1020C94A102A4
:100050000C94A1020C94E91D0C94A1020C94A10231
:100060000C94A1020C94A1020C94A1020C94A10284
:100070000C94A1020C94A1020C94A1020C94A10274
:100080000C94A1020C94A1020C94A1020C94A10264
:100090000C94A1020C94A1020C94A1020C94A10254
:1000A0000C94A1020C94A1020C94A1020501090276
:1000B000A10185020901A100050919012905150001
:1000C00025019505750181029501750381010501E1
:1000D000093009311581257F950275088106093897
:1000E0001581257F950175088106050C0A380215D2
:1000F00081257F950175088106C0C005010980A191
:1001000001850319012AB700150126B7009501756D
:10011000108100C0050C0901A101850419012AA064
:1001200002150126A002950175108100C005010984
:1001300006A1018505050719E029E71500250195A8
:1001400008750181020507190029EF1500250195A1
:10015000F0750181020508190129059505750191C0
:1001600002950175039101C00660FF0961A10109B3
:1001700062150026FF0095207508810209631500AD
:1001800026FF00952075089102C005010906A1010E
:10019000050719E029E71500250195087501810279
:1001A0009501750881010507190029FF150026FF33
:1001B0000095067508810005081901290595057542
:1001C000019102950175039101C05F00600061001B
:1001D000290014001A000800150017001C00180060
:1001E0000C00120013005C005D005E002B00040098
:1001F0001600070009000A000B000D000E000F009A
:10020000340059005A005B005200E1001D001B0041
:1002100006001900050011001000360037006200CA
:10022000500051004F00E2002C000151E700E400B3
:10023000E5002A00380028004C0001000100010000
:1002400001000100010001000100010001000100A6
:100250000100010001000100010001000100010096
:100260000100010001000100010001000100010086
:100270000100010001000100010001000100010076
:100280000100010001000100010001000100010066
:100290000100010001000100010001000100010056
:1002A0000100010001000100010001000100010046
:1002B0000100010001000100010001000100010036
:1002C0000100010001000100010001000100010026
:1002D0000100010001000100010001000100010016
:1002E0000100010001000100010001000100010006
:1002F00001000100010001000100010001000100F6
:1003000001000100010001000100010001000100E5
:1003100001000100010001000100010001000100D5
:1003200001000100010001000100010001000100C5
:1003300001000100010001000100010001000100B5
:1003400001000100010001000100010001000100A5
:100350000100010001000100010001000100010095
:100360000100010001000100010001000100010085
:100370000100010001000100010001000100010075
:100380000100010001000100010000000000000068
:1003900000000000000000000000000000007E0FD0
:1003A00000D4FFFFFFC7000000780000000000003D
:1003B00000002A2B280000000000000000000000C0
:1003C000000000000029000000002C1E3420212223
:1003D00024342627252E362D3738271E1F2021228C
:1003E000232425263333362E37381F040506070805
:1003F000090A0B0C0D0E0F101112131415161718F5
:10040000191A1B1C1D2F3130232D35040506070832
:10041000090A0B0C0D0E0F101112131415161718D4
:10042000191A1B1C1D2F3130354C09025B000301CA
:1004300000A0FA09040000010301010009211101D3
:1004400000012240000705810308000A0904010099
:10045000020300000009211101000122220007050A
:1004600082032000010705030320000109040200A4
:10047000010300000009211101000122BC00070551
:10048000840320000A1201100100000008249601D4
:10049000000100010200010803470069006E00002E
:1004A000000C034F006300650061006E0000000453
:1004B0000309040011241FBECFEFDAE0DEBFCDBF79
:1004C00004B603FE27C08091500290915102A09182
:1004D0005202B09153028730904BA740B04BD1F4F9
:1004E0001092500210925102109252021092530236
:1004F00014BE84B7877F84BF0FB6F894A895809107
:100500006000886180936000109260000FBEE0E0A0
:10051000F8E3099511E0A0E0B1E0E8ECFDE302C0EA
:1005200005900D92AE35B107D9F722E0AEE5B1E006
:1005300001C01D92A035B207E1F70E94AC190C94DE
:10054000AB1E0C940000E8EDF0E080818E7F80838C
:100550001092E2001092DA001092E100A0EEB0E0FA
:100560008C9181608C9380818F77808319BCA7EDFB
:10057000B0E08C918E7F8C9380818F7E80831092EF
:100580001A0208952091E4003091E50095E6A90152
:100590002091EC00822F817020FF06C08091E8003E
:1005A00080FF06C080E008952091E80022FD1AC077
:1005B00080913F02882389F0853089F08091EB009B
:1005C00085FD0FC02091E4003091E50042175307EC
:1005D000F9F29150E1F684E0089582E0089583E015
:1005E000089581E00895EF92FF920F931F93CF93A8
:1005F0007C018B010E94C202C82F811117C080911B
:10060000E80085FD0BC08091E8008E778093E800BC
:100610000E94C202882399F3C82F08C0F701819174
:100620007F018093F1000150110949F78C2FCF9180
:100630001F910F91FF90EF9008958091410287FFE5
:1006400013C08091E80082FF06C08091E8008B779C
:100650008093E80004C080913F028111F2CF089599
:1006600080913F028823D9F38091E80080FFF8CF82
:100670008091E8008E77ECCF982F9093E900242F9B
:10068000762F50E0891731F07091EC002091ED0049
:100690005091F00021FD07C09F5F973071F7809364
:1006A000E90081E008953091EB003E7F3093EB004C
:1006B0003091ED003D7F3093ED003091EB003160E3
:1006C0003093EB007093EC002093ED005093F0001A
:1006D0002091EE0027FDE0CF80E00895CF92DF92D9
:1006E000EF92FF920F931F93CF93DF93C8EDD0E06B
:1006F00088818F7E8883E7EDF0E080818160808350
:1007000084E082BF81E080931A0288818E7F888393
:1007100002EE10E0F80110821092DA0081EEC82E8D
:10072000D12CF601108288818F7788838881806838
:10073000888388818F7D888319BC10923F02109234
:10074000400210923E0210923D0290EEE92EF12CF2
:10075000F70180818B7F808388818160888342E07C
:1007600060E080E00E943C03F60180818E7F808300
:10077000F801808181608083808188608083F701B7
:1007800080818E7F8083888180618883DF91CF9193
:100790001F910F91FF90EF90DF90CF900895FC0193
:1007A000809147029091480286179707A0F0611543
:1007B000710529F49091E8009E779093E80090E00D
:1007C0006115710551F4911108C08091E80082FF14
:1007D00034C080E00895BC01F2CF80913F028823AD
:1007E000C1F18530C1F18091E80083FD30C0809176
:1007F000E80082FDEACF8091E80080FFE1CF8091A0
:10080000F3002091F200382F6115710519F028309E
:10081000310558F091E02830310509F090E0209141
:10082000E8002E772093E800CBCF81918093F100F0
:10083000615071092F5F3F4FE7CF80913F028823BE
:1008400041F0853041F08091E80083FFBECF81E028
:10085000089582E0089583E0089580911C02089530
:1008600090910002803F59F48091010287FF0DC0F2
:100870001092010291110BC01092FB0108C0813F40
:1008800081F48091010218169CF3992381F08091E4
:10089000020290910302892B09F064C01092F801C2
:1008A0000895823F49F497FFF0CF109200028091A3
:1008B00001028111ECCFE0CF833F19F41916ACF39C
:1008C000E4CF20910202893F29F41216F4F6109227
:1008D0000202DBCF8A3F19F427FFD7CFF8CF209150
:1008E00003028B3F29F427FFD0CF10920302CDCF14
:1008F0008C3F19F41216CCF3C8CF843F31F48091A9
:10090000FF018E7F8093FF01C0CF853F21F480914E
:10091000FF018D7FF7CF863F21F48091FF018B7F10
:10092000F1CF873F21F48091FF01877FEBCF883F94
:1009300021F48091FF018F7EE5CF8D3F31F48091CE
:10094000EA018E7F8093EA01A0CF8E3F21F480914F
:10095000EA018D7FF7CF8F3F09F097CF8091EA01B1
:100960008B7FF0CF08958091EA0180FD16C081FD54
:1009700016C082FD16C08091F8018823A1F088324C
:1009800080F428E0829FC001112468E270E00E9498
:10099000341E862F672B39F0089582E0089584E095
:1009A000089588E0089581E008958091EA0180FD2E
:1009B00014C081FD14C082FD16C08091FB01882304
:1009C00081F0843180F422E3829FC001112464E12C
:1009D00070E00E94341E862F08958CE0089589E10E
:1009E000089585E0089582E30895803F31F40E94E0
:1009F000D5048195809301020895813F19F40E94E6
:100A0000D504F8CF823F31F40E94D50481958093BC
:100A100000020895833F19F40E94D504F8CF893F5E
:100A200029F40E94B3048093020208958A3F21F4BE
:100A30000E94B3048195F7CF8B3F31F40E94B30439
:100A400081958093030208958C3F19F40E94B304AA
:100A5000F8CF843F31F48091FF0181608093FF01E2
:100A60000895853F21F48091FF018260F7CF863F92
:100A700021F48091FF018460F1CF873F21F48091C0
:100A8000FF018860EBCF883F21F48091FF018061F6
:100A9000E5CF8D3F31F48091EA0181608093EA01D6
:100AA00008958E3F21F48091EA018260F7CF8F3F55
:100AB000B9F78091EA018460F1CF87E797E79093D7
:100AC00001088093000888E19AE00FB6F894A89591
:100AD000809360000FBE90936000FFCF9C014FB7E2
:100AE000F8948091160290911702A0911802B0918B
:100AF00019024FBF821B930B08952FB7F894809172
:100B0000160290911702A0911802B09119022FBFFE
:100B100008950E947D059C01909100028091010240
:100B2000982B21F03093FD012093FC01909102025B
:100B300080910302982B21F03093FA012093F90160
:100B4000E091F501F091F601309749F082E0809351
:100B5000FE010480F581E02D8EEF91E00994089567
:100B600020910A012223C9F02091F30127FF15C02B
:100B7000E62FE695E695E695EE31D8F4E80FF92FE5
:100B8000F11D677021E030E001C0220F6A95EAF79D
:100B900020958281282322830895FC0132960896AD
:100BA0002191621303C0DF0111971C92E817F90726
:100BB000B9F7089520910A012223C1F02091F30191
:100BC00027FF14C0E62FE695E695E695EE31F8F49A
:100BD000E80FF92FF11D677021E030E001C0220F0E
:100BE0006A95EAF78281822B82830895FC0132960E
:100BF0002FEF30E04191641751F02F3F19F441116C
:100C000001C0232F3F5F3630A9F72F3F09F4089525
:100C1000820F911D27FD9A95FC01628308958091B2
:100C2000E50181111092E50108958091E401909110
:100C3000E301892B9091E201892B80935E019091D1
:100C4000E5019923A1F0892B80935E0180910A012F
:100C5000882341F18091F30187FF24C08EE1E0E613
:100C6000F1E090E0815000F591110E940F06E091B3
:100C7000F501F091F6013097E1F080910A018823A7
:100C800059F08091F30187FF07C080915E01809346
:100C90005F0185E080935E010280F381E02D8EE5A7
:100CA00091E0099486E0DBCF21912223D9F29F5F66
:100CB000D9CF08952EE0929F800D1124982F977020
:100CC00086958695869525E0829FF0011124E25451
:100CD000FE4F50E040E080E0219130E0092E02C05C
:100CE000369527950A94E2F721703327042E01C028
:100CF000220F0A94EAF7822B4F5F5F4F4530510570
:100D000059F708952EE0929F800D1124982F977027
:100D100041E001C0440F9A95EAF78695869586953D
:100D200095E0899FF0011124E254FE4F90E080E0AD
:100D300070E05191DF0111979B01082E02C036959A
:100D400027950A94E2F7217021952527242325274A
:100D50002C9301968530910561F708958091BD012E
:100D600090918C01981301C008958F5F8770FACF1E
:100D7000882341F080959091E40189238093E401D8
:100D80000C9415060895882339F09091E401982B6E
:100D90009093E4010C9415060895209183013091FD
:100DA00084012817390771F090938401809383019F
:100DB000E091F501F091F601309721F00084F18582
:100DC000E02D099408952091810130918201281726
:100DD000390771F09093820180938101E091F501D0
:100DE000F091F601309721F00680F781E02D09940B
:100DF00008951092E3011092E2010E94150686E028
:100E0000EEEFF1E0DF011D928A95E9F71092FB0108
:100E10001092F8011092EA010E94890590E080E0AA
:100E20000E94E30690E080E00C94CD0660934C02B3
:100E300070934D0280934E0290934F020C94F906EA
:100E40000F931F9360914C0270914D0280914E025E
:100E500090914F028B019C010670112722273327A6
:100E6000063011052105310529F468601F910F91A5
:100E70000C941607677FFACF0F931F9341E050E061
:100E800060E070E004C0440F551F661F771F8A950D
:100E9000D2F7CB01BA01609570958095909500913D
:100EA0004C0210914D0220914E0230914F0260236E
:100EB0007123822393231F910F910C941607909115
:100EC000E101809589238093E101282F277071F437
:100ED000282F082E000C330B9217130639F0859536
:100EE000859585950E943C071092E10108950F9326
:100EF0001F9341E050E060E070E004C0440F551FD4
:100F0000661F771F8A95D2F780914C0290914D020F
:100F1000A0914E02B0914F028A019B01082B192B20
:100F20002A2B3B2BC901B8011F910F910C94160776
:100F30006093E6017093E7018093E8019093E901E3
:100F40000C94F9068823B1F19CEF980F913A38F48C
:100F5000682F8EE591E00E94B0050C94150690E292
:100F6000980F983088F4877021E030E0A90102C022
:100F7000440F551F8A95E2F7CA0180959091E401CC
:100F800089238093E401E9CF9BE5980F933020F407
:100F900090E080E00C94E30698E5980F973120F4F8
:100FA00090E080E00C94CD06803F20F00E94300459
:100FB0000C9489050895CF93C82F882309F46FC036
:100FC0008CEF8C0F813AC0F580910A01882311F1D2
:100FD0008091F30187FF1EC0EC2FE695E695E6951C
:100FE000F0E0E25AFE4F828190E04C2F477021E002
:100FF00030E002C0220F331F4A95E2F78223932389
:10100000892B91F06C2F8EE591E00E94B0050E9433
:1010100015060AC0E0E6F1E086E691E02191C217EC
:1010200089F38E179F07D1F76C2F8EE591E00E9410
:10103000DA05CF910C94150680E28C0F883068F4A5
:10104000C77021E030E001C0220FCA95EAF7809115
:10105000E401822B8093E401ECCFEBE5EC0FE3306D
:1010600040F4F0E0E55FFE4F808190E0CF910C947A
:10107000E306E8E5EC0FE73150F4F0E0EE0FFF1F78
:10108000E25FFE4F80819181CF910C94CD06C03FED
:1010900030F08C2F0E94F504CF910C948905CF91EC
:1010A0000895E091F501F091F601309721F001905B
:1010B000F081E02D099480E00895F894E82FE295FE
:1010C000EF70F0E031A1282F2F7081E090E001C097
:1010D000880F2A95EAF7982F9095932391A392A1D0
:1010E000892B82A3789408959091F30192FF06C012
:1010F000282F28712830F9F4877F846093FF06C079
:10110000282F28712831F1F4877E84612091F40121
:1011100020FF06C0382F38713830D9F4877F8160BE
:1011200021FF06C0282F28712831D1F4877E8161E4
:1011300094FD877E0895282F24712430F9F68B7F43
:101140008860DCCF282F2471243101F78B7E8861E1
:10115000DDCF382F3171313019F78E7F8860E0CFC5
:10116000282F2171213121F78E7E8861E1CFCF9325
:1011700084E090E00E94691EC82F81E290E00E9406
:10118000691E982F8C2FCF9108950F931F93CF93A3
:10119000DF93C42FD0E0CC0FDD1F2CE1629FC00D88
:1011A000D11D112430E7839FC00DD11D1124CE0124
:1011B00086960E94691E082F10E0102F0027CE018E
:1011C00087960E94691E9801282BC901DF91CF9153
:1011D0001F910F910895462F843038F4743028F40D
:1011E0006E3018F4672F0C94C50890E080E00895E5
:1011F000CF93DF930E94EB08EC0182389105A9F1AF
:10120000D8F58133910509F496C048F589329105E6
:1012100009F48AC08A9709F495C0C11521E5D2075F
:1012200008F0BCC0C11530E5D30708F014C1C83EB2
:10123000D10508F09CC0C03ED10560F5C83AD10583
:1012400008F087C0C53AD10508F0FDC0C130D1050E
:1012500009F12097F9F0C430D105E0F440C085339E
:10126000910509F45AC0C997C1F68091F3018370C2
:1012700089F0C0EED0E00EC0833E910599F170F484
:10128000803E910501F1823E910539F68091F3018E
:1012900082FD21C0CE01DF91CF910895863E910558
:1012A00061F1873E910571F1843E910509F0B5CF5A
:1012B0008091F40181FFEECF8091F301C7EED0E081
:1012C00084FD0DC0E7CF8091F30180FD12C19091A4
:1012D000F40190FFDFCFC3EED0E084FFDBCFD0E09E
:1012E000C0E0D8CF8091F30182FD06C19091F40156
:1012F00090FDBFCF84FFCECFF2CF8091F30183FD6D
:10130000DDCFC8CF8091F30183FDF9C09091F40146
:1013100091FFF0CFC4EED0E0BDCF8091F30185FF07
:10132000B9CFC9E2D0E0B6CF8091F30185FFB2CF4B
:10133000C5E3D0E0AFCF8091F30186FFABCFCAE227
:10134000D0E0A8CF8091F30186FFA4CFC1E3D0E025
:10135000A1CFCF3BD10518F6C85AD0E0CC0FDD1F86
:10136000C25FDE4F0990D881C02DD46493CFC115E0
:1013700040E2D40758F4C11581E0D80708F08ACFBD
:10138000C03FD10508F4ABCFD06584CFC11590E440
:10139000D90708F4A4CFDF70D06A7CCFC11525E54A
:1013A000D20700F5C11534E5D30708F08AC0C1158E
:1013B00043E5D40708F071C0C11582E5D80708F4E9
:1013C00067C0CE018370992721E030E002C0220F70
:1013D000331F8A95E2F7C695C69580E2C89FE00163
:1013E000112452C0C11599E5D907A8F4C11528E503
:1013F000D20708F06BC0C11536E5D30708F06FCFF0
:101400008C2F0E947408C82FD0E0DC2FCC27CC276B
:10141000DF71D0623FCFC1154AE5D40708F45BC045
:10142000CE0190568115904208F059CF8D2F8F71C3
:101430000E94740890E0982F882788279F719C014C
:101440002C2BE901E6CFC55AD0E0C55FDE4FC8813D
:10145000D0E0D0641FCFCE01E4E096958795EA9561
:10146000E1F783702C2F26952695237040E2249F68
:1014700090011124382B8C2F8370C1E0D0E002C082
:10148000CC0FDD1F8A95E2F7C22BD32BDC6802CF8D
:10149000DC2FCC27C16FD06AFDCECE018370992797
:1014A00021E030E002C0220F331F8A95E2F7C69593
:1014B000C69590E2C99FE0011124C22BD32BDA68B4
:1014C000E9CEDC2FCC27C46FD06AE4CEDC2FCC274A
:1014D000C06FD06ADFCE8C2F8F700E94740834E00A
:1014E000D695C7953A95E1F7CF709C2FEC01D0695E
:1014F000D1CEC9E3D0E0CECEC2EED0E0CBCEC6EEA8
:10150000D0E0C8CEBF92CF92DF92EF92FF920F93BE
:101510001F93CF93DF938C01C0904C02D0904D026B
:10152000E0904E02F0904F028091E6019091E70129
:10153000A091E801B091E901C82AD92AEA2AFB2A38
:10154000CFE1D0E0BC2ED701C6010C2E04C0B69569
:10155000A795979587950A94D2F780FD0EC021979D
:1015600088F7B12C8B2DDF91CF911F910F91FF90B8
:10157000EF90DF90CF90BF900895B8018C2F0E941C
:10158000F808019761F3EECFCF93DF93EC010E944F
:10159000820ABE01DF91CF910C94F8080E94C40A20
:1015A000292F2F7092959F7092509E3078F4E92FDA
:1015B000F0E0E355F14E0C94481E803F19F020F402
:1015C000883E20F481E00895843FE1F380E00895AF
:1015D000883EC0F3813FD1F7F5CF822F869586955F
:1015E000869508956F927F928F929F92AF92BF924D
:1015F000CF92DF92EF92FF920F931F93CF93DF93DF
:101600008AECC82E81E0D82E92EBE92EF12CE7016E
:10161000C057D10936011BC0F50185909490692D02
:10162000C8010E94771E682DC80101960E94771E8E
:1016300082E0A80EB11C0E5F1F4FC017D10761F7E3
:101640008CE1680E711C6C96CE15DF0529F08E01B9
:101650000C5111095301E0CF7E0180E7E80EF11C27
:1016600080E7C80ED11C82E7E81682E0F80679F61A
:10167000DF91CF911F910F91FF90EF90DF90CF906E
:10168000BF90AF909F908F907F906F900895CF9371
:10169000DF93C6EED1E060E0CE010E94771E219676
:1016A000C11584E0D807B9F7DF91CF910895CF93A2
:1016B000DF9300D00F92CDB7DEB790913F02943008
:1016C00011F589837B836A839093E9008FEF909172
:1016D000E800815095FD06C095ED9A95F1F7000060
:1016E0008111F5CF8091E80085FF0DC050E040E00A
:1016F00063E070E0CE0101960E94F3028091E80061
:101700008E778093E8000F900F900F90DF91CF912C
:101710000895BC0184E00C94570BBC0183E00C9449
:10172000570B9C0184E08093E9009FEF8091E800D3
:10173000915085FD06C085ED8A95F1F70000911165
:10174000F5CF8091E80085FF0CC050E040E066E0F6
:1017500070E0C9010E94F3028091E8008E778093C7
:10176000E8000895CF93DF93EC0180910A0188236C
:10177000B1F18091F30187FF32C060E284E0809391
:10178000E9008FEF9091E800815095FD06C095ED3E
:101790009A95F1F700008111F5CF8091E80085FF5F
:1017A0001BC080910A0170E050E040E0811104C04C
:1017B00050E040E068E070E0CE010E94F3028091CA
:1017C000E8008E778093E80080E2FE01ADE1B2E0B0
:1017D00001900D928A95E1F7DF91CF91089568E02D
:1017E00081E0CDCFCF93C82F0E94DB07C93349F4E6
:1017F0002FEF87EE93E0215080409040E1F700C04A
:1018000000008C2FCF910C94A2070F931F93CF93BE
:10181000DF93C62FD42F022FFC0182818823A1F0F1
:1018200060934B020E947D0590934A028093490287
:10183000C77081E001C0880FCA95EAF7DF91CF91A8
:101840001F910F910C94C30680914B02681335C011
:101850008091490290914A020E946E05883C910550
:1018600060F510E21D0FCD17B9F080E28C0F8830C3
:1018700040F4C77081E001C0880FCA95EAF70E9462
:10188000B806183048F481E09D2F977001C0880F8A
:101890009A95EAF70E94C306802F0E94F20B183037
:1018A00098F4D77081E001C0880FDA95EAF7DF91EC
:1018B000CF911F910F910C94B806C77081E001C0C1
:1018C000880FCA95EAF7F3CFDF91CF911F910F915F
:1018D00008956F927F929F92AF92BF92CF92DF92C4
:1018E000EF92FF920F931F93CF93DF939CE3E92E28
:1018F00091E0F92E10E000E0C0E0CC24C394D12C9C
:1019000033EFA32E31E0B32ED7018D917D01F894F2
:10191000E82FE295EF70F0E021A18F70A60102C0E0
:10192000440F551F8A95E2F7CA01922F982B91A375
:1019300092A18095892382A3789450EA5A95F1F771
:10194000A601002E02C0440F551F0A94E2F7BA0107
:1019500060957095EBEEF1E08AE4682E81E0782ED8
:10196000D0E021913191D3019D903D01892D829547
:101970008F7090E0DC0190968C9190E0B92DBF7053
:1019800002C095958795BA95E2F780FD52C0C901CE
:10199000842B952B2817390739F09F0122503109E4
:1019A000D9018D939C93D1E0AE16BF06D1F6F70115
:1019B000319780810E945D08CD2B0F5F1F4F0E3045
:1019C000110509F0A1CFCC23C1F181E08093800102
:1019D0000E947D0590937F0180937E0180917E011E
:1019E00090917F010E946E05069758F18091EB015E
:1019F0009091EC0190930F0280930E028091ED0183
:101A00009091EE0190931102809310028091EF016A
:101A10009091F00190931302809312028091F10152
:101A20009091F2019093150280931402109280011C
:101A300008C0C90186239723ADCF80918001811111
:101A4000CDCF8C2FDF91CF911F910F91FF90EF9011
:101A5000DF90CF90BF90AF909F907F906F90089550
:101A60006CEE7EEF90E080E00E94951E60E082E0E8
:101A700090E00E94771E60E083E090E00E94771E75
:101A80001092E6011092E7011092E8011092E9012C
:101A900060E084E090E00E94771E60E081E290E0E8
:101AA0000E94771E60E085E090E00E94771E60E073
:101AB00086E090E00E94771E6FEF87E090E00E9442
:101AC000771E40E050E0BA0188E090E00E94891E55
:101AD00060E08DE090E00E94771E40E050E0BA01A7
:101AE00088E190E00E94891E60E087E190E00E941A
:101AF000771E40E050E0BA018CE190E00E94891E20
:101B000060E080E290E00E94771E40E050E0BA0181
:101B100088E190E00E94891E40E050E0BA018FE029
:101B200090E00E94891E40E050E0BA0183E190E01D
:101B30000C94891E1092E40180910A01E0E6F1E024
:101B4000882359F08091F30187FF07C08EE1DF0100
:101B50001D928A95E9F70C94F90686E0F8CF1F9359
:101B6000CF93DF93CDB7DEB7AA970FB6F894DEBF59
:101B70000FBECDBF81E492E02091F100DC012D93F6
:101B8000CD01B2E089349B07B9F7809142028330DE
:101B900009F471C0B8F4813009F448C0823009F406
:101BA000B2C08091E80083FF3AC1809141029091D8
:101BB00042029A3008F033C1E92FF0E0E554F14ECB
:101BC0000C94481E8A3009F48DC08B3009F470C023
:101BD000893039F780914102813219F780914502AD
:101BE00090914602009711F00297D9F68091E80093
:101BF000877F8093E8008091E80082FF37C0909152
:101C0000F3008091F200029729F48091F1008B7F1C
:101C1000813021F48091F10080931C028091E800D2
:101C20008B778093E8000E941D03BBCF8091410217
:101C3000813A09F0B6CF8091E800877F8093E80071
:101C40008091450290914602892B61F460E28DE11A
:101C500092E070E00E94CF038091E8008B77809340
:101C6000E8009FCF60E090E080E0F3CF80913F02FA
:101C70008111C1CF96CF80914102813A09F091CF75
:101C80008091450290914602892B09F08ACF80917C
:101C9000E800877F8093E8008091E80080FFFCCF18
:101CA00080910A018093F1008091E8008E77B9CF8E
:101CB00080914102813209F074CF80914502909168
:101CC0004602892B09F06DCF8091E800877F8093D1
:101CD000E8000E941D038091430280930A010E9444
:101CE0009A0D5FCF80914102813209F05ACF8091E5
:101CF000E800877F8093E8000E941D0380914402E2
:101D000080931B024ECF80914102813A09F049CF66
:101D10008091E800877F8093E8008091E80080FF51
:101D2000FCCF80911B02BECF803899F0823809F039
:101D300076C0809145028F70873008F070C0809324
:101D4000E9008091EB0085FB882780F91092E9007B
:101D500006C080913D0290913E0291118260909167
:101D6000E800977F9093E8008093F1001092F100D3
:101D70008091E8008E77B5C1882309F4A2C1823032
:101D800009F04DC0809143028111A6C180914502A6
:101D90008F702FEF280F263008F041C08093E900A4
:101DA0002091EB0020FF98C1933031F48091EB003B
:101DB00080628093EB0090C19091EB0090619093D2
:101DC000EB0021E030E001C0220F8A95EAF7209372
:101DD000EA001092EA008091EB008860EACF81115E
:101DE0001EC0109143021F778091E3008078812B01
:101DF0008093E3008091E800877F8093E8000E9451
:101E00001D038091E80080FFFCCF8091E300806893
:101E10008093E30082E0111183E080933F02809180
:101E2000E80083FF0AC08091E800877F8093E80084
:101E30008091EB0080628093EB00AA960FB6F89435
:101E4000DEBF0FBECDBFDF91CF911F9108958058A7
:101E5000823028F720914302309144022C3DE3E088
:101E60003E07A1F583E08A838AE289834FB7F8941D
:101E7000DE01139620E03EE051E2E32FF0E05093C4
:101E80005700E49120FF03C0E295EF703F5FEF70D1
:101E90008E2F90E0EA30C0F0C7968D939D932F5F10
:101EA000243159F74FBF8091E800877F8093E80085
:101EB0006AE270E0CE0101960E94CF038091E800B3
:101EC0008B778093E800ABCFC096E7CF8091450237
:101ED00090914602432F55274330510509F44AC0DB
:101EE00078F54130510509F47AC08BE590E0EAE2DB
:101EF000F4E04230510509F092CF2091E800277FAD
:101F00002093E800209147023091480282179307FE
:101F100008F49C0140E02115310509F065C041112C
:101F200063C08091E80082FDC9CF80913F02882381
:101F300029F2853019F28091E80083FFF2CFBECFFD
:101F40004132510509F43CC04232510509F067CFD6
:101F50008330910508F063CFFC01EE0FFF1FEF5AAD
:101F6000FE4F0190F081E02D825B9E4FDC018C9151
:101F700090E01AC0332721303105D1F02115310509
:101F800061F02230310509F04ACFE7E9F4E0E4914D
:101F90008E2F90E0E7E9F4E007C0EFEAF4E0E49187
:101FA0008E2F90E0EFEAF4E0009709F438CFA5CF48
:101FB000E1EAF4E0E4918E2F90E0E1EAF4E0F4CF7E
:101FC0008330910508F02BCF880F991FFC01E95A47
:101FD000FE4F0190F081E02D89E090E08ECF82E10C
:101FE00090E0E5E8F4E089CF80913F02882309F48E
:101FF00065CF853009F462CF8091E80083FD5ECF24
:102000008091E80082FD8DCF8091E80080FF83CF32
:102010009091F3008091F2002115310519F088307C
:10202000910550F041E0089709F040E08091E80008
:102030008E778093E8006FCF44914093F100319602
:10204000215031090196E8CF803809F0E8CE80911F
:10205000E800877F8093E800809140028093F10040
:1020600087CE8111DCCE10914302123008F0D7CE1A
:102070008091E800877F8093E800109340020E94DF
:102080001D03112311F084E005C08091E30087FD5A
:10209000FACF81E080933F0242E061EC81E00E9450
:1020A0003C0342E261EC84E00E943C0342E261ECCA
:1020B00082E00E943C0342E260EC83E00E943C0329
:1020C000AECE80914302813009F0A9CE81E09330F9
:1020D00009F080E080933E021092E9008091E800D0
:1020E000877F8093E8000E941D0399CE4F925F92F4
:1020F0006F927F928F929F92AF92BF92CF92DF9218
:10210000EF92FF920F931F93CF93DF9300D000D0F5
:102110000F92CDB7DEB77C01FC0183819481892BBE
:1021200031F08081918189238F3F09F01FC50F9085
:102130000F900F900F900F90DF91CF911F910F9103
:10214000FF90EF90DF90CF90BF90AF909F908F90D7
:102150007F906F905F904F9008950E94820A182F91
:10216000682F89819A810E94820669817A81812FF4
:102170000E94EB088C01F7018281882309F4EBC4EB
:10218000980122513F452031310508F0BDC48FEF41
:1021900093E00E94691E025156EEA52EBB24B39413
:1021A000882379F18091E101877009F4C0CFF701AC
:1021B0008281882309F4BBCF82E00F900F900F90AB
:1021C0000F900F90DF91CF911F910F91FF90EF90A3
:1021D000DF90CF90BF90AF909F908F907F906F9047
:1021E0005F904F900C945F07A114F4E0BF06D1F20A
:1021F000C5010E94691E811101C001502FEFA21A72
:10220000B20A0111F1CF1C821B82662463944AE05A
:10221000542E85010F5F1F4FC5010E94691E8983DF
:102220001A82882309F4BECF9FEF980F933008F5E8
:102230008A83698232E0A30EB11CC8010E94691E24
:102240008B83882309F4AECF8E010F5F1F4FF801F7
:1022500020812223F1F2213009F043C09181828153
:10226000913049F40E5F1F4F0E94F20B0F5F1F4F1A
:10227000EECF5801E9CF923029F40E5F1F4F0E9434
:10228000DB07F4CF933029F40E5F1F4F0E94A207A3
:10229000EDCF943019F00F5F1F4FE8CF0E5F1F4F47
:1022A00030E020E0B8016F5F7F4FF801418180533B
:1022B000990B8A30910550F021503109B8F28FE91D
:1022C0009FE00197F1F700C00000F6CF529EF001A9
:1022D000539EF00D11249C012E0F3F1F842F8B0164
:1022E000E1CFE22FF0E0E655FC4F7490822F869507
:1022F0008695869590E0FC01E656FC4F8490277009
:10230000912C022E02C0959487940A94E2F7E1E0A2
:102310008E229924FC01E657FC4FC490D12C02C0B8
:10232000D594C7942A95E2F7F1E0CF22DD248114F9
:10233000910419F081EE0E94DB07C114D10419F059
:1023400086EE0E94DB07872D0E94F20BCD2819F044
:1023500086EE0E94A207892809F488CF81EE96CFE5
:1023600081E00E9477070E9420071CCF81E00E9435
:102370003C07F9CF82E0F5CF063F2CE5120709F4C0
:1023800061C008F45BC027E245EE66EE073F9CE5BE
:10239000190709F4DCC3882309F4F9C310924B022E
:1023A0000230ECE51E0708F430C10631FCE51F07DA
:1023B00038F098012B5F3C452930310508F025C1E4
:1023C0000E94B7089093F4018093F30100312CE54B
:1023D000120709F4E9C008F073C008308CE518074B
:1023E00009F4D4C008F045C00430ECE51E0709F438
:1023F000C1C078F502302CE5120709F4B5C0809110
:10240000F301826003301C4509F4B1C06091F3010F
:102410001091F40184E090E00E94771E612F81E228
:1024200090E00E94771E0E949A0DBCCE27E245EEF6
:1024300065EE8DC326E241EE60EE89C327E245EEEC
:1024400064EE85C326E241EE62EE81C328E241E0FC
:10245000EFCF06308CE5180709F494C08091F301A2
:10246000886007301C4508F482C08091F3018062C7
:102470007EC08091F3018D7F0C30ECE51E0709F4DE
:1024800076C070F48091F3018C600A302CE512075D
:1024900009F46DC008F47EC08091F3018E7F67C09F
:1024A0000E308CE5180709F47BC08091F3018B7F17
:1024B0000F301C4508F45BC08091F3018F7E57C03C
:1024C0000C3FECE51E0709F459C030F503312CE54B
:1024D000120709F471C078F401318CE5180709F48A
:1024E00067C002311C4509F091CF0E949A0D80917E
:1024F000F3018F773CC00531ECE51E0709F464C099
:1025000008F478C08091F40181600B3F1C4509F00C
:102510007DCF8093F4017ACF01153DE5130709F4CF
:102520004FC088F48091F4018D7F0E3F9CE5190720
:1025300081F38091F4018E7F0F3F1C4550F3809111
:10254000F4018360E6CF0230FDE51F0709F45BC0AC
:1025500008F446C060E003301D4509F057CF8EE017
:1025600090E00E94771E52CF8091F30181608093AA
:10257000F3014CCF8091F3018460F9CF8091F40195
:102580008260C7CF8091F3018061F1CF8091F30128
:102590008064EDCF0E949A0D8091F3018068E7CFAF
:1025A0008091F301877FE3CF8091F3018F7DDFCFAF
:1025B0008091F3018F7BDBCF8091F301837FD7CFB5
:1025C0008091F4018C7FA5CF8091F30182FB992744
:1025D00090F921E0922790FB82F990FB83F9C7CF15
:1025E0008091F401982F909591708E7F892B90FBAC
:1025F00081F98FCF0E949A0D9091F301892F97FB5B
:1026000087F98058B4CF61E0AACF06319CE519075D
:1026100009F0CAC28091E4018A7A91E009F490E05D
:102620009093850169E2811165E38EE591E00E9456
:10263000DA050E941506B6CD0E949A0DEFEFF4E37D
:102640002CE0E150F0402040E1F700C000000E9483
:102650005D050E94300DA6CDC8010E945A06D82EF5
:10266000BAC2212F2F70A22E107F19F0A29490EFE2
:10267000A922DD20C9F0AA2069F080E2800F88300D
:1026800010F081100BC08091E401A82AA092E4010F
:102690000E941506802F0E94DB0718C08091E3017D
:1026A000A82AA092E301F4CF802F0E94A207AA20BB
:1026B00069F0A094005E083010F081103BC080915A
:1026C000E401A822A092E4010E941506EB2DE85037
:1026D000FF0B349710F40E945108CC2009F427CD49
:1026E0008091E10180FD23CDF701128285958595CA
:1026F00085950E947707C7010E9476108091E101BD
:102700008595859585950F900F900F900F900F9060
:10271000DF91CF911F910F91FF90EF90DF90CF90BD
:10272000BF90AF909F908F907F906F905F904F90F1
:102730000C943C078091E301A822A092E301C4CF4E
:10274000312F3F70932E107F103219F0929480EF4A
:102750009822882071F081E0881661F1DD20B9F1BE
:10276000AA2071F1F701858180FF94CF8F70858356
:1027700027C0DD2091F09091E501892D892BA110D2
:1027800003C00E94C306A2CFE1E0AE12FACF9817B1
:1027900009F49CCF8093E50199CFA11006C00E9457
:1027A0000F06892D0E94B80691CFF1E0AF1609F40B
:1027B0008DCFF5CFDD2031F025E02A1508F486CF46
:1027C000892DDFCF34E03A1508F480CFEACFAA2074
:1027D00041F3F9E38F1291C12FEF37EE83E02150DF
:1027E00030408040E1F700C0000087C1812F86950E
:1027F0008695837061F0813009F068CFC8019370CD
:10280000D11002C090E080E00E94CD065FCFC801E9
:102810009370D11002C090E080E00E94E30656CF92
:10282000802FDD2029F00E94F5040E9489054ECFFB
:102830000E943004FACF812F837009F066C0D11056
:1028400045CF802F829586958770880F880F602FDF
:102850006F70462E512C712C612C082E04C0440C34
:10286000551C661C771C0A94D2F740E050E0BA0170
:1028700004FF0FC04FE050E060E070E004C0440F80
:10288000551F661F771F8A95D2F740955095609522
:102890007095812F869586958370823019F1D8F4D2
:1028A0000091E6011091E7012091E8013091E901E2
:1028B000813069F04429552966297729CB01BA016D
:1028C00060237123822393230E949807FFCE402A1E
:1028D000512A622A732ACB01BA01642975298629F3
:1028E0009729F2CF44295529662977290091E601D5
:1028F0001091E7012091E8013091E901CB01BA0183
:102900006027712782279327DFCF8695DD2011F07E
:10291000812F8170882309F4D9CE802F82958695E6
:102920008770880F880F602F6F70462E512C712C86
:10293000612C082E04C0440C551C661C771C0A949C
:10294000D2F740E050E0BA0104FF0FC04FE050E082
:1029500060E070E004C0440F551F661F771F8A9522
:10296000D2F74095509560957095812F8695869504
:102970008370823019F1D8F400914C0210914D020D
:1029800020914E0230914F02813069F0442955293F
:1029900066297729CB01BA0160237123822393230F
:1029A0000E94160793CE402A512A622A732ACB012D
:1029B000BA016429752986299729F2CF4429552916
:1029C0006629772900914C0210914D0220914E0208
:1029D00030914F02CB01BA016027712782279327DC
:1029E000DFCF1F70DD2029F0812F0E947707802F15
:1029F000C8CE802F0E94B806812F0E943C0766CE69
:102A0000802F92EF891609F450C0981578F0E0EF06
:102A10008E1619F1F1EF8F1609F43FC0DD2009F48D
:102A200067C0A11037CE812F8F713CC023EF821673
:102A300009F440C034EF8312F1CFDD2009F44DC01A
:102A40001F71812F0E947707E8E01E9FC0011124AB
:102A500083608093E101812F25C0DD20C9F084E0EF
:102A60008A1508F433CE1F7161E070E080E090E0D9
:102A700004C0660F771F881F991F1A95D2F700911F
:102A80004C0210914D0220914E0230914F02A4CF82
:102A900095E09A1508F41ACEE6CF812F8F71DD20CC
:102AA00009F4ABCF0E94770711CE812F8F71DD2003
:102AB000C9F3A3CF60E070E0CB01DD2009F470CF53
:102AC0001F7161E070E080E090E004C0660F771F46
:102AD000881F991F1A95D2F763CF81E00E945F0784
:102AE000F1E0FA1508F0F2CD82E00E945F07EECD2A
:102AF000AA2039F0893309F46FCE802F0E94A207F3
:102B0000E5CD812F8F7179CF0031FFE51F0709F4E3
:102B100027CC01312FE5120709F42CCC043F2CE51A
:102B2000120709F487CC08F027CC093D9CE519076A
:102B300009F47CCC0A3DECE51E0709F487CC083D7E
:102B4000FCE51F0709F027CC26E241EE61EEC70144
:102B50000E94050C27CB00313FE5130709F406CC92
:102B600001319FE51907D1F682E001CC85E0DE0155
:102B7000119601900D928A95E1F7F70122818981E2
:102B80009A812111EACA0E945A06182FEECA06310C
:102B90001C4599F48091850169E2811165E38EE518
:102BA00091E00E94B00545CD01152CE5120709F40E
:102BB00043CD0F3D1C4509F44CCDF7010081118137
:102BC000882309F449CDC8010E94820AD82E682FB3
:102BD000C8010E948206B8018D2D0E94F8088C0160
:102BE000882EF701A580A2943FE0A322D280D110C5
:102BF0001092E3018091E101877099F0DD2089F066
:102C0000812F807F803421F080E2800F883048F06F
:102C100082E00E945F078091E1018770CC24C39419
:102C20008111C12CB12EB2942FE0B222FBE0FB1532
:102C300008F44CCDEB2DF0E0EB53F14E0C94481E14
:102C40001F93CF93DF9380918B01807FA9F48091B4
:102C50008801882389F08091BD01D0918C01609119
:102C6000860170918701A0918901B0918A01C62FD8
:102C7000C72316E0D81304C0DF91CF911F910895A8
:102C800090E0109711F0CF3F19F401968770F2CFC2
:102C9000189F9001199F300D1124F901E357FE4F41
:102CA00041814713F2CF40814613EFCF428141115A
:102CB000ECCF438154814A1B5B0B483C510528F7FC
:102CC00080918B018F70806180938B01F901EE56AA
:102CD000FE4F80818F708061808386E891E00E9442
:102CE0007610DF91CF911F910C94AE06AF92BF92F8
:102CF000CF92DF92EF92FF920F931F93CF93DF93C8
:102D0000CDB7DEB761970FB6F894DEBF0FBECDBF6B
:102D10008C0185E0F801DE011D9601900D928A95E7
:102D2000E1F7F80180819181E28026E8A22E21E07E
:102D3000B22E6091890170918A016115710509F4C3
:102D40003EC13091860140918701232F24232F3FDC
:102D500009F435C1C380D480F0908801F601E61BE8
:102D6000F70BFF2009F4FBC020918B01522F507FFD
:102D7000E83CF10508F0BBC0511178C0FE2C4913A6
:102D800021C038131FC0E1101DC02F702061209397
:102D90008B01C5010E94761080918B01F80185831B
:102DA0008F2D61960FB6F894DEBF0FBECDBFDF91B9
:102DB000CF911F910F91FF90EF90DF90CF90BF9038
:102DC000AF900895CD2829F0282F29232F3F09F00F
:102DD00014C120E0F22FF170DF2E20FF3DC02091C2
:102DE000BD0140918C0156E0241315C08D879E874C
:102DF0008D859E850E94C40A292F22952F7022302E
:102E0000F8F0243020F59F70F9F0F8019581907F5B
:102E1000D9F4D12C1FC030E0529FF001539FF00D28
:102E20001124E357FE4F6181961306C0608186131B
:102E300003C06281E61210C02F5F3F4F2770D4CFCE
:102E40009F7011F0882329F3805E883010F3C80149
:102E50000E947610FD2CA4CFEE2009F4A1CF809122
:102E60008B01816080938B01F12C9ACF491312C0A2
:102E7000381310C0E1100EC0F8012583C8010E946C
:102E8000761086E0F801A6E8B1E001900D928A95EF
:102E9000E1F786CF8D879E878D859E850E94CE0A1D
:102EA000882309F1EE20F9F080918B01803270F0D7
:102EB000209186013091870138872F831986DB8620
:102EC000CA868C87CE0107960E94761086E0F801AC
:102ED000A6E8B1E001900D928A95E1F70E942016D4
:102EE000FF24F3945DCFC8010E947610F9CF5111F1
:102EF0000AC086E891E00E94761086E0F501119202
:102F00008A95E9F7B1CF49130FC038130DC0E1100E
:102F10000BC0F8012583C8010E94761086E0F501F8
:102F200011928A95E9F73CCF8D879E878D859E8586
:102F30000E94CE0A8823B9F2EE20A9F280918B017B
:102F4000803220F220918601309187013A832983D3
:102F50001B82DD82CC828E83CE010196B5CFE83C08
:102F6000F105E0F6FE2CEE2009F4BDCF491316C0A2
:102F7000381314C080918B0180FD83CF982F907FF0
:102F800009F47FCFF8018583903F09F477CF982F1C
:102F9000907F905F8F70892B858370CF8D879E8700
:102FA0008D859E850E94CE0A811190CF80918B01E4
:102FB000816080938B01C8010E947610F1CEEE20D3
:102FC00009F491CF8D879E878D859E850E94CE0ABC
:102FD000F82E882309F487CF86E0F801A6E8B1E04F
:102FE00001900D928A95E1F7809186019091870179
:102FF0000E94C40A0E942016D3CE21E02E25EACEDC
:103000001F93CF93DF93CDB7DEB767970FB6F894D2
:10301000DEBF0FBECDBF4B8B5C8B6D8B7E8B8F8BE2
:103020001A8A198A85E0FE017396DE011D960190C9
:103030000D928A95E1F786E0FE013D96DE01179636
:1030400001900D928A95E1F7CE0107960E947616BF
:10305000882389F016E08091BD0190918C0189133D
:1030600049C067960FB6F894DEBF0FBECDBFDF91A3
:10307000CF911F91089586E0FE013796DE011196EB
:1030800001900D928A95E1F78A859B85892B11F332
:103090008F81988589238F3FE9F220918C0130E060
:1030A000C9010196877099274091BD0148171906FB
:1030B00071F40E949A0D10928C011092BD0186E06D
:1030C000E6E8F1E0DF011D928A95E9F7C3CF96E0CB
:1030D000929FD001939FB00D1124A357BE4FFE01C4
:1030E000319601900D929A95E1F780938C010E94A0
:1030F000AE06B0CF819FC001112483579E4F0E941E
:103100007616882309F4ADCF8091BD0190E0019639
:10311000877099278093BD019ECF1F920F920FB6A3
:103120000F9211242F933F934F935F936F937F934D
:103130008F939F93AF93BF93CF93DF93EF93FF93BF
:10314000D091E900DF708091EC00C82FC17080FD44
:10315000C0E81092E9008091F000877F8093F00032
:1031600078940E94AF0D1092E9008091F000886081
:103170008093F000CD2BCF70C093E900FF91EF91C9
:10318000DF91CF91BF91AF919F918F917F916F917F
:103190005F914F913F912F910F900FBE0F901F9015
:1031A00018951F920F920FB60F9211242F933F93F1
:1031B0004F935F936F937F938F939F93AF93BF933F
:1031C000EF93FF938091E10082FF09C08091E200BC
:1031D00082FF05C08091E1008B7F8093E1008091A8
:1031E000DA0080FF24C08091D80080FF20C0809149
:1031F000DA008E7F8093DA008091D90080FF9FC033
:1032000080E189BD82E189BD09B400FEFDCF81E086
:1032100080933F0280911A02811109C00E94A3028B
:103220000E946E038091E20084608093E2008091AE
:10323000E10080FF17C08091E20080FF13C0809101
:10324000E2008E7F8093E2008091E20080618093B3
:10325000E2008091D80080628093D80019BC85E09C
:1032600080933F028091E10084FF2DC08091E200B5
:1032700084FF29C080E189BD82E189BD89B5982F8D
:10328000917080FFFBCF8091D8008F7D8093D80014
:103290008091E1008F7E8093E1008091E2008F7E3B
:1032A0008093E2008091E20081608093E20080914F
:1032B0004002882309F449C084E080933F020E94C1
:1032C0009A0D0E9451088091E10083FF27C08091F0
:1032D000E20083FF23C08091E100877F8093E100BB
:1032E00082E080933F02109240028091E1008E7F45
:1032F0008093E1008091E2008E7F8093E2008091D4
:10330000E20080618093E20042E060E080E00E94A1
:103310003C038091F00088608093F000FF91EF9172
:10332000BF91AF919F918F917F916F915F914F91DD
:103330003F912F910F900FBE0F901F90189519BCC1
:1033400010923F0210921A0272CF8091E30087FD23
:1033500093E090933F02B3CFCDB7DEB7AA970FB6F5
:10336000F894DEBF0FBECDBF84B7877F84BF0FB692
:10337000F894A89580916000886180936000109215
:1033800060000FBE80E890E00FB6F8948093610073
:10339000909361000FBE85B7806885BF85B7806850
:1033A00085BF0E94A3020E946E038091E2008460A8
:1033B0008093E200789480913F028823A1F01091DD
:1033C000E9001F709091EC00892F817090FD80E8DA
:1033D000182B1092E9008091E80083FD0E94AF0D48
:1033E0001F701093E90082E084BD93E095BD9AEFD1
:1033F00097BD80936E000CE311E08AE4E82E81E033
:10340000F82EF80181918F010E945D08E016F10607
:10341000C1F780E90E945D0881E90E945D0882E9A8
:103420000E945D0883E90E945D081092EC011092F1
:10343000EB0110920F0210920E021092EE01109208
:10344000ED0110921102109210021092F0011092F0
:10345000EF0110921302109212021092F2011092D8
:10346000F10110921502109214020E94690CFFEFF4
:1034700026E741E0F15020404040E1F700C0000065
:103480000E94690C80910E0280FF17C06FEF82E2EC
:1034900090E00E94771E6FEF83E290E00E94771E1B
:1034A0006FEF84E290E00E94771E6FEF7FEF90E075
:1034B00080E00E94951E0E945D0590E080E00E94E1
:1034C000711E8C3E9E4F11F00E94300D82E290E002
:1034D0000E94691E813209F050C383E290E00E948D
:1034E000691E853009F049C384E290E00E94691E9C
:1034F000883009F042C390E080E00E94711E8C3E4B
:103500009E4F11F00E94300D82E090E00E94691EF3
:10351000809305020E94B7089093F4018093F30111
:1035200083E090E00E94691E682F70E090E080E0E8
:103530000E94980780E091E09093F6018093F50156
:1035400052E0652EBB24BA946AE1262E70E1772EF4
:10355000E0E73E2EFCE14F2EA9E05A2EAA24A394C8
:10356000B8E1EB2EF12C80913F02853009F43FC188
:103570000E94690CAEE0B2E0E6E0F2E010E000E0AC
:10358000602F8D919D91219131912817390709F470
:103590006DC12827392770E0CC24C394D12CA90110
:1035A0004C215D21452B09F45BC179A36AA39C01E1
:1035B0002C213D2191E0232B09F490E09BA30E9454
:1035C0007D058160782F9DA38CA349A15AA16BA191
:1035D0008DA10E940018000F111FF801EA5FFD4F36
:1035E00080819181C826D926D182C08286E0EEEF03
:1035F000F1E0DE01119601900D928A95E1F7D090ED
:103600000002C09001021091020200910302109288
:1036100000021092010210920202109203028D2DFC
:103620008C2909F448C08091FC019091FD010E9411
:103630006E059C019091FB01992309F4C5C22333C7
:103640003105C8F19F3F19F09F5F9093FB01DD208A
:1036500059F00E94D5049FEF1D140CF491E0899F4E
:10366000802D112480930002CC2059F00E94D504B3
:103670009FEF1C140CF491E0899F802D11248093FE
:103680000102309100023323B1F020910102222384
:1036900091F045EB3403C0011124992309F4FCC0D7
:1036A0009093000245EB240390011124332309F485
:1036B000F6C030930102812F802B09F448C080911D
:1036C000F9019091FA010E946E059C019091F80118
:1036D000992309F474C225363105C8F19F3F19F0CA
:1036E0009F5F9093F801112359F00E94B3049FEF5C
:1036F00011160CF491E0899F802D11248093020211
:10370000002359F00E94B3049FEF10160CF491E0CF
:10371000899F802D1124809303023091020233236C
:10372000B1F020910302222391F045EB3403C00154
:103730001124992309F4B6C09093020245EB2403A7
:1037400090011124332309F4B0C030930302809117
:10375000000290910102892B90910202892B909195
:103760000302892B11F00E94890586E0FE01319643
:10377000AEEFB1E001900D928A95E1F70E945108F9
:1037800090910402891721F00E945108809304024D
:1037900080913F02843009F0E6CE83E08093E90017
:1037A0008091E80082FFDFCE8091E80090E085FF05
:1037B0000CC00E94C20230E2C32ED12C8E010F5FDA
:1037C0001F4F882309F47EC091E08091E8008B7739
:1037D0008093E800992309F4C6CEE981E150E331F2
:1037E00008F0F4C0F0E0EF52F14E0C94481E8091C6
:1037F0003F02843011F11092F70180E40FB6F89483
:10380000A895E09260000FBE8093600083B7817F2F
:10381000846083BF83B7816083BF7894889583B7C2
:103820008E7F83BF0FB6F894A89580916000886161
:1038300080936000109260000FBE80913E0288234A
:1038400009F491CE0E94690CEEE0F2E08191919131
:10385000892B09F07DC122E0E631F207B9F783CE6A
:103860007F5FCC0CDD1C7E3009F099CE0F5F1F4FBF
:103870000430110509F084CEBEA2BFA218A60E9492
:103880007D058160782F9AA789A74EA15FA168A5C1
:103890008AA50E940018AACEA092000203CFA0928F
:1038A000010209CFA092020249CFA09203024FCF9A
:1038B0008091F100F80181938F01F1E0CF1AD108D6
:1038C00009F482CF8091E80085FDF2CF8091E80075
:1038D0008B778093E8000E94C202882399F374CF0B
:1038E0001A825B8280913F02843009F03CCE1091B5
:1038F000E9001F709091EC00892F817090FD80E8A5
:10390000182B6092E9008091E80080FF0DC050E024
:1039100040E060E270E0CE0101960E94F3028091E7
:10392000E8008E778093E8001F701093E9001BCEAB
:103930008A81823009F43AC18330A9F0813009F0DC
:1039400045C02FB7F89460911602709117028091CC
:103950001802909119022FBF0E944E1E6B837C8328
:103960008D839E83BFCF80910E0290910F02982786
:10397000892798279C838B83809110029091110254
:103980009827892798279E838D8380911202909192
:10399000130298278927982798878F83809114028C
:1039A000909115029827892798279A8789879ACF17
:1039B0008A81823059F46B817C818D819E810E9445
:1039C0004E1E85E290E00E94771E8CCFB9828ACF8E
:1039D0004C816B818A810E94C50898278927982786
:1039E0009E838D837FCF0D811E8110270127102795
:1039F0008A81CB80C49C60011124839DC00CD11CA2
:103A000011248C8190E0880F991FC80ED91E612F58
:103A1000C60186960E94771E602FC6018796D3CF77
:103A20000E94F20A5FCF7A825DCF6A822B825ACFE0
:103A30000A811B81102701271027CE0101966C01F6
:103A40008C80FC01E80DF11D4F01C8018A519E4F89
:103A50008C149D0409F446CF0A31F2E01F0750F49C
:103A60000E94691EF60184830F5F1F4FFFEFCF1A7C
:103A7000DF0AEBCFF6011482F7CF0A811B811027F2
:103A800001271027CE0101964C01CC80C00ED12E0B
:103A9000D11CC8018A519E4FC016D10609F422CF0D
:103AA0000A31E2E01E0720F4F40164810E94771ECF
:103AB000FFEF8F1A9F0A0F5F1F4FEBCF0E94470B3C
:103AC00011CF24E02A830ECF0A811B811027012702
:103AD0001027CE0101966C018C80FC01E80DF11DD0
:103AE0004F01C8018696C814D90409F4FBCE003CE6
:103AF000F1E01F0750F40E94691EF60184830F5FF6
:103B00001F4FFFEFCF1ADF0AECCFF6011482F7CF79
:103B10000A811B81102701271027CE0101964C0135
:103B2000CC80C00ED12ED11CC80186960C151D0567
:103B300009F4D8CE003CE1E01E0720F4F4016481D2
:103B40000E94771EFFEF8F1A9F0A0F5F1F4FECCF67
:103B500079BC82E189BD09B400FEFDCF8091D80017
:103B60008F7D8093D8008091E00082608093E00098
:103B70008091E00081FDFCCFF6CC60E085E290E032
:103B80000E94771E0E94F20A0E94470B61E282E2C5
:103B900090E00E94771E65E083E290E00E94771E2D
:103BA00068E084E290E00E94771EA5CC85E290E078
:103BB0000E94691E1B821C821D828E8393CE2D3231
:103BC000314008F08DCDC3CD2D32314008F03CCDD1
:103BD00072CD78941F921FB61F9211248F939F93DA
:103BE000AF93BF938091160290911702A091180293
:103BF000B09119020196A11DB11D809316029093F8
:103C00001702A0931802B0931902BF91AF919F9130
:103C10008F911F901FBE1F9018951F921FB61F9265
:103C200011248F939F93AF93BF938091F7018111DC
:103C300013C08091160290911702A0911802B091C2
:103C400019024196A11DB11D80931602909317028F
:103C5000A0931802B0931902BF91AF919F918F91D9
:103C60001F901FBE1F90189597FB072E16F4009407
:103C700007D077FD09D00E94551E07FC05D03EF401
:103C8000909581959F4F0895709561957F4F089508
:103C9000EE0FFF1F0590F491E02D099469279627F8
:103CA00069277827872778270895AA1BBB1B51E12E
:103CB00007C0AA1FBB1FA617B70710F0A61BB70B9C
:103CC000881F991F5A95A9F780959095BC01CD0141
:103CD0000895F999FECF92BD81BDF89A992780B5D4
:103CE0000895A8E1B0E042E050E00C949D1E262F1C
:103CF000F999FECF92BD81BDF89A019700B40216E2
:103D000039F01FBA20BD0FB6F894FA9AF99A0FBE8F
:103D100008950396272F0E94781E0E94771E252F54
:103D20000E94781E242F0C94781E0196272F0E9443
:103D3000781E0C94771EDC01CB01FC01F999FECFB3
:103D400006C0F2BDE1BDF89A319600B40D92415023
:103D50005040B8F70895F894FFCFDD0ADD0AE60A6F
:103D6000E60AE80AE60AE60AE60ADD0ADD0AED0ADC
:103D7000E60AE60AED0A940EBC0E0F0FBC0E0F0FFA
:103D8000EF0E270F0F0F2410311031133113A01332
:103D9000A013F6131014661366131B14F114001508
:103DA0000015701C981CD81CE81CF31C101DE61C88
:103DB000E61CE61CE61CE61C131D151D181D3D1D0A
:083DC0005E1D611D641D881DDC
:103DC8002D04B20B910B8D0B890B01818283E200CC
:103DD800E900EA00B500B600B700CD008301CC00C9
:103DE8008A0192019401210223022402250226025B
:103DF80027022A02B300B4006F0070003534C6975A
:103E0800669436323331F7F6F5F490919293402266
:0E3E1800BC8A016801AC003C0455047504002E
:00000001FF
