:100000000C944E020C9495020C9495020C9495025B
:100010000C9495020C9495020C9495020C94950204
:100020000C9495020C9495020C94C5180C948118AC
:100030000C94011E0C9495020C9495020C9495025C
:100040000C9495020C9495020C9495020C949502D4
:100050000C9495020C94DD1D0C9495020C94950261
:100060000C9495020C9495020C9495020C949502B4
:100070000C9495020C9495020C9495020C949502A4
:100080000C9495020C9495020C9495020C94950294
:100090000C9495020C9495020C9495020C94950284
:1000A0000C9495020C9495020C949502050109029A
:1000B000A10185020901A100050919012905150001
:1000C00025019505750181029501750381010501E1
:1000D000093009311581257F950275088106093897
:1000E0001581257F950175088106050C0A380215D2
:1000F00081257F950175088106C0C005010980A191
:1001000001850319012AB700150126B7009501756D
:10011000108100C0050C0901A101850419012AA064
:1001200002150126A002950175108100C005010984
:1001300006A1018505050719E029E71500250195A8
:1001400008750181020507190029EF1500250195A1
:10015000F0750181020508190129059505750191C0
:1001600002950175039101C00660FF0961A10109B3
:1001700062150026FF0095207508810209631500AD
:1001800026FF00952075089102C005010906A1010E
:10019000050719E029E71500250195087501810279
:1001A0009501750881010507190029FF150026FF33
:1001B0000095067508810005081901290595057542
:1001C000019102950175039101C0290014001A00E4
:1001D0000800150017001C0018000C001200130086
:1001E0004C002A002B0004001600070009000A003A
:1001F0000B000D000E000F00330028000000E1008E
:100200001D001B000600190005001100100036003B
:100210003700520001510000E000E300E20001510C
:1002200000002C002C0000005000510052004F0034
:1002300000000100010001000100010001000100B7
:1002400001000100010001000100010001000100A6
:100250000100010001000100010001000100010096
:100260000100010000000100010001000100010087
:100270000100010001000100010001000100000077
:100280000100010001000100000001000100000068
:100290000100010001000100000001000100010057
:1002A0000100010001000100010001000100010046
:1002B0000100010001000100010001000100010036
:1002C0000100010001000100010001000000010027
:1002D0000100010001000100010001000100010016
:1002E0000100010001000000010001000100010007
:1002F00000000100010000000100010001000100F8
:1003000000000100010001000100010001000100E6
:1003100001000100010001000100010001000100D5
:1003200001000100010001000100010001000100C5
:1003300001000100000001000100010001000100B6
:1003400001000100010001000100010001000000A6
:100350000100010001000100000001000100000097
:100360000100010001000100000000000000000089
:1003700000000000000000000000000000007E0FF0
:1003800000D4FFFFFFC7000000780000000000005D
:1003900000002A2B280000000000000000000000E0
:1003A000000000000029000000002C1E3420212243
:1003B00024342627252E362D3738271E1F202122AC
:1003C000232425263333362E37381F040506070825
:1003D000090A0B0C0D0E0F10111213141516171815
:1003E000191A1B1C1D2F3130232D35040506070853
:1003F000090A0B0C0D0E0F101112131415161718F5
:10040000191A1B1C1D2F3130354C09025B000301EA
:1004100000A0FA09040000010301010009211101F3
:1004200000012240000705810308000A09040100B9
:10043000020300000009211101000122220007052A
:1004400082032000010705030320000109040200C4
:10045000010300000009211101000122BC00070571
:10046000840320000A1201100100000008249604F1
:10047000000100010200011003570061006E0067D7
:100480000020005600320000000C034F006300659E
:100490000061006E000000040309040011241FBE67
:1004A000CFEFDAE0DEBFCDBF04B603FE27C08091F8
:1004B0004E0290914F02A0915002B09151028730AC
:1004C000904BA740B04BD1F410924E0210924F02C5
:1004D000109250021092510214BE84B7877F84BFDD
:1004E0000FB6F894A89580916000886180936000B1
:1004F000109260000FBEE0E0F8E3099511E0A0E083
:10050000B1E0E0EBFDE302C005900D92AC35B10720
:10051000D9F722E0ACE5B1E001C01D92AE34B207DC
:10052000E1F70E94A0190C949F1E0C940000E8EDC6
:10053000F0E080818E7F80831092E2001092DA00DA
:100540001092E100A0EEB0E08C9181608C938081EC
:100550008F77808319BCA7EDB0E08C918E7F8C9350
:1005600080818F7E80831092180208952091E4008C
:100570003091E50095E6A9012091EC00822F817071
:1005800020FF06C08091E80080FF06C080E008954B
:100590002091E80022FD1AC080913D02882389F055
:1005A000853089F08091EB0085FD0FC02091E4003B
:1005B0003091E50042175307F9F29150E1F684E0DB
:1005C000089582E0089583E0089581E00895EF9210
:1005D000FF920F931F93CF937C018B010E94B60271
:1005E000C82F811117C08091E80085FD0BC0809154
:1005F000E8008E778093E8000E94B602882399F382
:10060000C82F08C0F70181917F018093F10001504C
:10061000110949F78C2FCF911F910F91FF90EF9007
:10062000089580913F0287FF13C08091E80082FF08
:1006300006C08091E8008B778093E80004C0809129
:100640003D028111F2CF089580913D028823D9F3B4
:100650008091E80080FFF8CF8091E8008E77ECCFA2
:10066000982F9093E900242F762F50E0891731F0CE
:100670007091EC002091ED005091F00021FD07C039
:100680009F5F973071F78093E90081E00895309182
:10069000EB003E7F3093EB003091ED003D7F3093D7
:1006A000ED003091EB0031603093EB007093EC0083
:1006B0002093ED005093F0002091EE0027FDE0CF55
:1006C00080E00895CF92DF92EF92FF920F931F93F5
:1006D000CF93DF93C8EDD0E088818F7E8883E7EDEC
:1006E000F0E080818160808384E082BF81E080933C
:1006F000180288818E7F888302EE10E0F801108254
:100700001092DA0081EEC82ED12CF6011082888179
:100710008F77888388818068888388818F7D8883AC
:1007200019BC10923D0210923E0210923C021092AF
:100730003B0290EEE92EF12CF70180818B7F8083C4
:1007400088818160888342E060E080E00E9430031D
:10075000F60180818E7F8083F801808181608083B3
:10076000808188608083F70180818E7F808388818B
:1007700080618883DF91CF911F910F91FF90EF905F
:10078000DF90CF900895FC01809145029091460240
:1007900086179707A0F06115710529F49091E8007C
:1007A0009E779093E80090E06115710551F49111E6
:1007B00008C08091E80082FF34C080E00895BC0149
:1007C000F2CF80913D028823C1F18530C1F1809143
:1007D000E80083FD30C08091E80082FDEACF80917F
:1007E000E80080FFE1CF8091F3002091F200382FE4
:1007F0006115710519F02830310558F091E0283065
:10080000310509F090E02091E8002E772093E80070
:10081000CBCF81918093F100615071092F5F3F4FE1
:10082000E7CF80913D02882341F0853041F08091EF
:10083000E80083FFBECF81E0089582E0089583E061
:10084000089580911A0208959091FE01803F59F415
:100850008091FF0187FF0DC01092FF0191110BC025
:100860001092F90108C0813F81F48091FF011816B0
:100870009CF3992381F08091000290910102892BD1
:1008800009F064C01092F6010895823F49F497FF81
:10089000F0CF1092FE018091FF018111ECCFE0CFEB
:1008A000833F19F41916ACF3E4CF20910002893F7D
:1008B00029F41216F4F610920002DBCF8A3F19F4E5
:1008C00027FFD7CFF8CF209101028B3F29F427FFD4
:1008D000D0CF10920102CDCF8C3F19F41216CCF379
:1008E000C8CF843F31F48091FD018E7F8093FD015C
:1008F000C0CF853F21F48091FD018D7FF7CF863FEA
:1009000021F48091FD018B7FF1CF873F21F480910D
:10091000FD01877FEBCF883F21F48091FD018F7E21
:10092000E5CF8D3F31F48091E8018E7F8093E8011F
:10093000A0CF8E3F21F48091E8018D7FF7CF8F3FCC
:1009400009F097CF8091E8018B7FF0CF08958091D7
:10095000E80180FD16C081FD16C082FD16C08091A1
:10096000F6018823A1F0883280F428E0829FC0013C
:10097000112468E270E00E94281E862F672B39F050
:10098000089582E0089584E0089588E0089581E064
:1009900008958091E80180FD14C081FD14C082FD9E
:1009A00016C08091F901882381F0843180F422E31C
:1009B000829FC001112464E170E00E94281E862FEE
:1009C00008958CE0089589E1089585E0089582E313
:1009D0000895803F31F40E94C90481958093FF01FE
:1009E0000895813F19F40E94C904F8CF823F31F481
:1009F0000E94C90481958093FE010895833F19F4F4
:100A00000E94C904F8CF893F29F40E94A70480936B
:100A1000000208958A3F21F40E94A7048195F7CF30
:100A20008B3F31F40E94A7048195809301020895C1
:100A30008C3F19F40E94A704F8CF843F31F48091D1
:100A4000FD0181608093FD010895853F21F480912F
:100A5000FD018260F7CF863F21F48091FD01846023
:100A6000F1CF873F21F48091FD018860EBCF883F73
:100A700021F48091FD018061E5CF8D3F31F48091BB
:100A8000E80181608093E80108958E3F21F4809110
:100A9000E8018260F7CF8F3FB9F78091E801846069
:100AA000F1CF87E797E7909301088093000888E1EA
:100AB0009AE00FB6F894A895809360000FBE9093CB
:100AC0006000FFCF9C014FB7F89480911402909181
:100AD0001502A0911602B09117024FBF821B930B13
:100AE00008952FB7F8948091140290911502A09167
:100AF0001602B09117022FBF08950E9471059C0144
:100B00009091FE018091FF01982B21F03093FB0121
:100B10002093FA019091000280910102982B21F01C
:100B20003093F8012093F701E091F301F091F40183
:100B3000309749F082E08093FC010480F581E02D3C
:100B40008CEF91E00994089520910A012223C9F0C5
:100B50002091F10127FF15C0E62FE695E695E69571
:100B6000EE31D8F4E80FF92FF11D677021E030E085
:100B700001C0220F6A95EAF72095828128232283FB
:100B80000895FC01329608962191621303C0DF019B
:100B900011971C92E817F907B9F7089520910A01F7
:100BA0002223C1F02091F10127FF14C0E62FE69522
:100BB000E695E695EE31F8F4E80FF92FF11D677030
:100BC00021E030E001C0220F6A95EAF78281822B92
:100BD00082830895FC0132962FEF30E04191641733
:100BE00051F02F3F19F4411101C0232F3F5F3630E0
:100BF000A9F72F3F09F40895820F911D27FD9A95BB
:100C0000FC01628308958091E30181111092E30158
:100C100008958091E2019091E101892B9091E0018A
:100C2000892B80935C019091E3019923A1F0892B9A
:100C300080935C0180910A01882341F18091F10148
:100C400087FF24C08EE1EEE5F1E090E0815000F5F1
:100C500091110E940306E091F301F091F4013097A5
:100C6000E1F080910A01882359F08091F10187FF1A
:100C700007C080915C0180935D0185E080935C01F9
:100C80000280F381E02D8CE591E0099486E0DBCFD2
:100C900021912223D9F29F5FD9CF08952DE0929F11
:100CA000800D1124982F977086958695869525E05E
:100CB000829FF0011124E454FE4F50E040E080E0B8
:100CC000219130E0092E02C0369527950A94E2F76B
:100CD00021703327042E01C0220F0A94EAF7822BD9
:100CE0004F5F5F4F4530510559F708952DE0929FB2
:100CF000800D1124982F977041E001C0440F9A9500
:100D0000EAF786958695869595E0899FF0011124EE
:100D1000E454FE4F90E080E070E05191DF011197C4
:100D20009B01082E02C0369527950A94E2F72170A0
:100D300021952527242325272C930196853091057D
:100D400061F708958091BB0190918A01981301C0C9
:100D500008958F5F8770FACF882341F08095909136
:100D6000E20189238093E2010C9409060895882307
:100D700039F09091E201982B9093E2010C940906CE
:100D8000089520918101309182012817390771F06F
:100D90009093820180938101E091F301F091F4013D
:100DA000309721F00084F185E02D09940895209179
:100DB0007F01309180012817390771F090938001ED
:100DC00080937F01E091F301F091F401309721F0DD
:100DD0000680F781E02D099408951092E1011092A8
:100DE000E0010E94090686E0ECEFF1E0DF011D92D0
:100DF0008A95E9F71092F9011092F6011092E80134
:100E00000E947D0590E080E00E94D70690E080E09F
:100E10000C94C10660934A0270934B0280934C027B
:100E200090934D020C94ED060F931F9360914A022C
:100E300070914B0280914C0290914D028B019C016C
:100E400006701127222733270630110521053105A9
:100E500029F468601F910F910C940A07677FFACFFD
:100E60000F931F9341E050E060E070E004C0440F36
:100E7000551F661F771F8A95D2F7CB01BA0160957F
:100E800070958095909500914A0210914B022091A7
:100E90004C0230914D0260237123822393231F91D2
:100EA0000F910C940A079091DF018095892380931C
:100EB000DF01282F277071F4282F082E000C330B28
:100EC0009217130639F08595859585950E94300710
:100ED0001092DF0108950F931F9341E050E060E00E
:100EE00070E004C0440F551F661F771F8A95D2F724
:100EF00080914A0290914B02A0914C02B0914D0218
:100F00008A019B01082B192B2A2B3B2BC901B80105
:100F10001F910F910C940A076093E4017093E5010F
:100F20008093E6019093E7010C94ED068823B1F1DC
:100F30009CEF980F913A38F4682F8CE591E00E946D
:100F4000A4050C94090690E2980F983088F48770F5
:100F500021E030E0A90102C0440F551F8A95E2F755
:100F6000CA0180959091E20189238093E201E9CF43
:100F70009BE5980F933020F490E080E00C94D70626
:100F800098E5980F973120F490E080E00C94C1062A
:100F9000803F20F00E9424040C947D050895CF9397
:100FA000C82F882309F46FC08CEF8C0F813AC0F5ED
:100FB00080910A01882311F18091F10187FF1EC001
:100FC000EC2FE695E695E695F0E0E45AFE4F828137
:100FD00090E04C2F477021E030E002C0220F331F19
:100FE0004A95E2F782239323892B91F06C2F8CE5AD
:100FF00091E00E94A4050E9409060AC0EEE5F1E016
:1010000084E691E02191C21789F38E179F07D1F7EB
:101010006C2F8CE591E00E94CE05CF910C940906CF
:1010200080E28C0F883068F4C77021E030E001C0A6
:10103000220FCA95EAF78091E201822B8093E201A8
:10104000ECCFEBE5EC0FE33040F4F0E0E55FFE4F72
:10105000808190E0CF910C94D706E8E5EC0FE73162
:1010600050F4F0E0EE0FFF1FE25FFE4F80819181B0
:10107000CF910C94C106C03F30F08C2F0E94E90440
:10108000CF910C947D05CF910895E091F301F091FB
:10109000F401309721F00190F081E02D099480E077
:1010A0000895F894E82FE295EF70F0E031A1282F31
:1010B0002F7081E090E001C0880F2A95EAF7982F01
:1010C0009095932391A392A1892B82A3789408955C
:1010D0009091F10192FF06C0282F28712830F9F471
:1010E000877F846093FF06C0282F28712831F1F490
:1010F000877E84612091F20120FF06C0382F38716D
:101100003830D9F4877F816021FF06C0282F2871ED
:101110002831D1F4877E816194FD877E0895282F40
:1011200024712430F9F68B7F8860DCCF282F24715E
:10113000243101F78B7E8861DDCF382F317131305A
:1011400019F78E7F8860E0CF282F2171213121F798
:101150008E7E8861E1CFCF9384E090E00E945D1E97
:10116000C82F81E290E00E945D1E982F8C2FCF91B6
:1011700008950F931F93CF93DF93C42FD0E0CC0F2C
:10118000DD1F2AE1629FC00DD11D112438E6839F27
:10119000C00DD11D1124CE0186960E945D1E082F20
:1011A00010E0102F0027CE0187960E945D1E980147
:1011B000282BC901DF91CF911F910F910895462FE0
:1011C000843038F4743028F46D3018F4672F0C94A0
:1011D000B90890E080E00895CF93DF930E94DF0884
:1011E000EC0182389105A9F1D8F58133910509F414
:1011F00096C048F58932910509F48AC08A9709F4A6
:1012000095C0C11521E5D20708F0BCC0C11530E575
:10121000D30708F014C1C83ED10508F09CC0C03EF9
:10122000D10560F5C83AD10508F087C0C53AD105A7
:1012300008F0FDC0C130D10509F12097F9F0C430A4
:10124000D105E0F440C08533910509F45AC0C9972F
:10125000C1F68091F101837089F0C0EED0E00EC03C
:10126000833E910599F170F4803E910501F1823E33
:10127000910539F68091F10182FD21C0CE01DF9107
:10128000CF910895863E910561F1873E910571F1F8
:10129000843E910509F0B5CF8091F20181FFEECF38
:1012A0008091F101C7EED0E084FD0DC0E7CF8091C1
:1012B000F10180FD12C19091F20190FFDFCFC3EEEA
:1012C000D0E084FFDBCFD0E0C0E0D8CF8091F10147
:1012D00082FD06C19091F20190FDBFCF84FFCECF79
:1012E000F2CF8091F10183FDDDCFC8CF8091F10174
:1012F00083FDF9C09091F20191FFF0CFC4EED0E0F0
:10130000BDCF8091F10185FFB9CFC9E2D0E0B6CF62
:101310008091F10185FFB2CFC5E3D0E0AFCF8091DE
:10132000F10186FFABCFCAE2D0E0A8CF8091F101F6
:1013300086FFA4CFC1E3D0E0A1CFCF3BD10518F603
:10134000C85AD0E0CC0FDD1FC25FDE4F0990D881B4
:10135000C02DD46493CFC11540E2D40758F4C11511
:1013600081E0D80708F08ACFC03FD10508F4ABCFA1
:10137000D06584CFC11590E4D90708F4A4CFDF70FD
:10138000D06A7CCFC11525E5D20700F5C11534E53B
:10139000D30708F08AC0C11543E5D40708F071C02F
:1013A000C11582E5D80708F467C0CE01837099277C
:1013B00021E030E002C0220F331F8A95E2F7C69584
:1013C000C69580E2C89FE001112452C0C11599E57D
:1013D000D907A8F4C11528E5D20708F06BC0C115DC
:1013E00036E5D30708F06FCF8C2F0E946808C82F0E
:1013F000D0E0DC2FCC27CC27DF71D0623FCFC115E6
:101400004AE5D40708F45BC0CE019056811590429E
:1014100008F059CF8D2F8F710E94680890E0982FA7
:10142000882788279F719C012C2BE901E6CFC55A9C
:10143000D0E0C55FDE4FC881D0E0D0641FCFCE01C1
:10144000E4E096958795EA95E1F783702C2F269531
:101450002695237040E2249F90011124382B8C2F75
:101460008370C1E0D0E002C0CC0FDD1F8A95E2F7A7
:10147000C22BD32BDC6802CFDC2FCC27C16FD06A04
:10148000FDCECE018370992721E030E002C0220F0B
:10149000331F8A95E2F7C695C69590E2C99FE00191
:1014A0001124C22BD32BDA68E9CEDC2FCC27C46FF2
:1014B000D06AE4CEDC2FCC27C06FD06ADFCE8C2F71
:1014C0008F700E94680834E0D695C7953A95E1F789
:1014D000CF709C2FEC01D069D1CEC9E3D0E0CECE45
:1014E000C2EED0E0CBCEC6EED0E0C8CEBF92CF9257
:1014F000DF92EF92FF920F931F93CF93DF938C01B4
:10150000C0904A02D0904B02E0904C02F0904D0205
:101510008091E4019091E501A091E601B091E7018D
:10152000C82AD92AEA2AFB2ACFE1D0E0BC2ED7016B
:10153000C6010C2E04C0B695A795979587950A9479
:10154000D2F780FD0EC0219788F7B12C8B2DDF914B
:10155000CF911F910F91FF90EF90DF90CF90BF90B0
:101560000895B8018C2F0E94EC08019761F3EECF2B
:10157000CF93DF93EC010E94760ABE01DF91CF91F9
:101580000C94EC080E94B80A292F2F7092959F7036
:1015900092509E3078F4E92FF0E0EF55F14E0C9424
:1015A0003C1E803F19F020F4883E20F481E008952D
:1015B000843FE1F380E00895883EC0F3813FD1F796
:1015C000F5CF822F86958695869508956F927F92A6
:1015D0008F929F92AF92BF92CF92DF92EF92FF9243
:1015E0000F931F93CF93DF938AECC82E81E0D82E00
:1015F00098EAE92EF12CE701C856D10936011BC043
:10160000F50185909490692DC8010E946B1E682D8C
:10161000C80101960E946B1E82E0A80EB11C0E5FED
:101620001F4FC017D10761F78AE1680E711C6A96D7
:10163000CE15DF0529F08E010A5111095301E0CFC3
:101640007E0188E6E80EF11C88E6C80ED11C88E40D
:10165000E81682E0F80679F6DF91CF911F910F919D
:10166000FF90EF90DF90CF90BF90AF909F908F90C2
:101670007F906F900895CF93DF93C6ECD1E060E048
:10168000CE010E946B1E2196C11584E0D807B9F7E0
:10169000DF91CF910895CF93DF9300D00F92CDB714
:1016A000DEB790913D02943011F589837B836A8384
:1016B0009093E9008FEF9091E800815095FD06C06E
:1016C00095ED9A95F1F700008111F5CF8091E80032
:1016D00085FF0DC050E040E063E070E0CE01019670
:1016E0000E94E7028091E8008E778093E8000F90D7
:1016F0000F900F90DF91CF910895BC0184E00C947E
:101700004B0BBC0183E00C944B0B9C0184E0809359
:10171000E9009FEF8091E800915085FD06C085EDBE
:101720008A95F1F700009111F5CF8091E80085FFCF
:101730000CC050E040E066E070E0C9010E94E702A2
:101740008091E8008E778093E8000895CF93DF932F
:10175000EC0180910A018823B1F18091F10187FFAA
:1017600032C060E284E08093E9008FEF9091E8005E
:10177000815095FD06C095ED9A95F1F70000811115
:10178000F5CF8091E80085FF1BC080910A0170E0D1
:1017900050E040E0811104C050E040E068E070E0BB
:1017A000CE010E94E7028091E8008E778093E800E6
:1017B00080E2FE01ABE1B2E001900D928A95E1F783
:1017C000DF91CF91089568E081E0CDCFCF93C82F0E
:1017D0000E94CF07C93349F42FEF87EE93E02150E1
:1017E00080409040E1F700C000008C2FCF910C9416
:1017F00096070F931F93CF93DF93C62FD42F022FFB
:10180000FC0182818823A1F0609349020E94710546
:101810009093480280934702C77081E001C0880F0F
:10182000CA95EAF7DF91CF911F910F910C94B706FB
:1018300080914902681335C0809147029091480217
:101840000E946205883C910560F510E21D0FCD17DE
:10185000B9F080E28C0F883040F4C77081E001C09D
:10186000880FCA95EAF70E94AC06183048F481E068
:101870009D2F977001C0880F9A95EAF70E94B706CE
:10188000802F0E94E60B183098F4D77081E001C0D9
:10189000880FDA95EAF7DF91CF911F910F910C94A1
:1018A000AC06C77081E001C0880FCA95EAF7F3CF94
:1018B000DF91CF911F910F9108956F927F929F9228
:1018C000AF92BF92CF92DF92EF92FF920F931F934E
:1018D000CF93DF939CE3E92E91E0F92E10E000E036
:1018E000C0E0CC24C394D12C31EFA32E31E0B32E31
:1018F000D7018D917D01F894E82FE295EF70F0E02B
:1019000021A18F70A60102C0440F551F8A95E2F7EE
:10191000CA01922F982B91A392A18095892382A32B
:10192000789450EA5A95F1F7A601002E02C0440FB0
:10193000551F0A94E2F7BA0160957095E9EEF1E05F
:1019400089E4682E81E0782ED0E021913191D30195
:101950009D903D01892D82958F7090E0DC019096DD
:101960008C9190E0B92DBF7002C095958795BA957E
:10197000E2F780FD52C0C901842B952B2817390747
:1019800039F09F0122503109D9018D939C93D1E008
:10199000AE16BF06D1F6F701319780810E9451083B
:1019A000CD2B0F5F1F4F0D30110509F0A1CFCC23B8
:1019B000C1F181E080937E010E94710590937D01C9
:1019C00080937C0180917C0190917D010E94620551
:1019D000069758F18091E9019091EA0190930D02E8
:1019E00080930C028091EB019091EC0190930F0297
:1019F00080930E028091ED019091EE01909311027F
:101A0000809310028091EF019091F0019093130266
:101A10008093120210927E0108C0C9018623972389
:101A2000ADCF80917E018111CDCF8C2FDF91CF91F1
:101A30001F910F91FF90EF90DF90CF90BF90AF90EC
:101A40009F907F906F9008956CEE7EEF90E080E025
:101A50000E94891E60E082E090E00E946B1E60E0C0
:101A600083E090E00E946B1E1092E4011092E50169
:101A70001092E6011092E70160E084E090E00E949D
:101A80006B1E60E081E290E00E946B1E60E085E0EA
:101A900090E00E946B1E60E086E090E00E946B1E6A
:101AA0006FEF87E090E00E946B1E40E050E0BA01CB
:101AB00088E090E00E947D1E60E08DE090E00E9452
:101AC0006B1E40E050E0BA0188E190E00E947D1E6C
:101AD00060E087E190E00E946B1E40E050E0BA01B8
:101AE0008CE190E00E947D1E60E080E290E00E9428
:101AF0006B1E40E050E0BA0188E190E00E947D1E3C
:101B000040E050E0BA018FE090E00E947D1E40E08E
:101B100050E0BA0183E190E00C947D1E1092E20146
:101B200080910A01EEE5F1E0882359F08091F101FE
:101B300087FF07C08EE1DF011D928A95E9F70C94BB
:101B4000ED0686E0F8CF1F93CF93DF93CDB7DEB7D6
:101B5000AA970FB6F894DEBF0FBECDBF8FE392E019
:101B60002091F100DC012D93CD01B2E087349B0779
:101B7000B9F780914002833009F471C0B8F4813024
:101B800009F448C0823009F4B2C08091E80083FFB4
:101B90003AC180913F02909140029A3008F033C1DF
:101BA000E92FF0E0E155F14E0C943C1E8A3009F427
:101BB0008DC08B3009F470C0893039F780913F02B5
:101BC000813219F78091430290914402009711F0FD
:101BD0000297D9F68091E800877F8093E800809192
:101BE000E80082FF37C09091F3008091F2000297E5
:101BF00029F48091F1008B7F813021F48091F100F4
:101C000080931A028091E8008B778093E8000E940D
:101C10001103BBCF80913F02813A09F0B6CF80918A
:101C2000E800877F8093E80080914302909144020E
:101C3000892B61F460E28BE192E070E00E94C303C3
:101C40008091E8008B778093E8009FCF60E090E080
:101C500080E0F3CF80913D028111C1CF96CF80917A
:101C60003F02813A09F091CF809143029091440262
:101C7000892B09F08ACF8091E800877F8093E80064
:101C80008091E80080FFFCCF80910A018093F100F1
:101C90008091E8008E77B9CF80913F02813209F0C0
:101CA00074CF8091430290914402892B09F06DCF4B
:101CB0008091E800877F8093E8000E941103809163
:101CC000410280930A010E948E0D5FCF80913F02F6
:101CD000813209F05ACF8091E800877F8093E80035
:101CE0000E94110380914202809319024ECF80918D
:101CF0003F02813A09F049CF8091E800877F8093C5
:101D0000E8008091E80080FFFCCF80911902BECFEF
:101D1000803899F0823809F076C0809143028F7044
:101D2000873008F070C08093E9008091EB0085FB5C
:101D3000882780F91092E90006C080913B029091BB
:101D40003C02911182609091E800977F9093E800A7
:101D50008093F1001092F1008091E8008E77B5C178
:101D6000882309F4A2C1823009F04DC0809141025C
:101D70008111A6C1809143028F702FEF280F26306A
:101D800008F041C08093E9002091EB0020FF98C14A
:101D9000933031F48091EB0080628093EB0090C12E
:101DA0009091EB0090619093EB0021E030E001C056
:101DB000220F8A95EAF72093EA001092EA008091B8
:101DC000EB008860EACF81111EC0109141021F779D
:101DD0008091E3008078812B8093E3008091E8007C
:101DE000877F8093E8000E9411038091E80080FFC4
:101DF000FCCF8091E30080688093E30082E01111C2
:101E000083E080933D028091E80083FF0AC08091C7
:101E1000E800877F8093E8008091EB0080628093E8
:101E2000EB00AA960FB6F894DEBF0FBECDBFDF91D0
:101E3000CF911F9108958058823028F72091410258
:101E4000309142022C3DE3E03E07A1F583E08A8316
:101E50008AE289834FB7F894DE01139620E03EE0D2
:101E600051E2E32FF0E050935700E49120FF03C0CC
:101E7000E295EF703F5FEF708E2F90E0EA30C0F098
:101E8000C7968D939D932F5F243159F74FBF809153
:101E9000E800877F8093E8006AE270E0CE01019657
:101EA0000E94C3038091E8008B778093E800ABCF5A
:101EB000C096E7CF8091430290914402432F55276B
:101EC0004330510509F44AC078F54130510509F411
:101ED0007AC08BE590E0EAE0F4E04230510509F089
:101EE00092CF2091E800277F2093E80020914502BF
:101EF000309146028217930708F49C0140E02115B7
:101F0000310509F065C0411163C08091E80082FD90
:101F1000C9CF80913D02882329F2853019F2809142
:101F2000E80083FFF2CFBECF4132510509F43CC037
:101F30004232510509F067CF8330910508F063CF35
:101F4000FC01EE0FFF1FE05BFE4F0190F081E02DE2
:101F5000835B9E4FDC018C9190E01AC033272130C7
:101F60003105D1F02115310561F02230310509F03C
:101F70004ACFE7E7F4E0E4918E2F90E0E7E7F4E062
:101F800007C0E7E9F4E0E4918E2F90E0E7E9F4E0A0
:101F9000009709F438CFA5CFE9E8F4E0E4918E2F5B
:101FA00090E0E9E8F4E0F4CF8330910508F02BCF1E
:101FB000880F991FFC01EA5AFE4F0190F081E02D35
:101FC00089E090E08ECF82E190E0E5E6F4E089CF11
:101FD00080913D02882309F465CF853009F462CFF2
:101FE0008091E80083FD5ECF8091E80082FD8DCF77
:101FF0008091E80080FF83CF9091F3008091F20000
:102000002115310519F08830910550F041E008970D
:1020100009F040E08091E8008E778093E8006FCF70
:1020200044914093F1003196215031090196E8CF57
:10203000803809F0E8CE8091E800877F8093E8003F
:1020400080913E028093F10087CE8111DCCE109109
:102050004102123008F0D7CE8091E800877F80934C
:10206000E80010933E020E941103112311F084E056
:1020700005C08091E30087FDFACF81E080933D02A7
:1020800042E061EC81E00E94300342E261EC84E0D6
:102090000E94300342E261EC82E00E94300342E29F
:1020A00060EC83E00E943003AECE8091410281302B
:1020B00009F0A9CE81E0933009F080E080933C02E2
:1020C0001092E9008091E800877F8093E8000E94E9
:1020D000110399CE4F925F926F927F928F929F924F
:1020E000AF92BF92CF92DF92EF92FF920F931F9326
:1020F000CF93DF9300D000D00F92CDB7DEB77C0135
:10210000FC0183819481892B31F080819181892325
:102110008F3F09F01FC50F900F900F900F900F90F9
:10212000DF91CF911F910F91FF90EF90DF90CF90B3
:10213000BF90AF909F908F907F906F905F904F90E7
:1021400008950E94760A182F682F89819A810E942B
:10215000760669817A81812F0E94DF088C01F70160
:102160008281882309F4EBC4980122513F45203134
:10217000310508F0BDC48FEF93E00E945D1E02514F
:1021800056ECA52EBB24B394882379F18091DF010E
:10219000877009F4C0CFF7018281882309F4BBCF8F
:1021A00082E00F900F900F900F900F90DF91CF91E2
:1021B0001F910F91FF90EF90DF90CF90BF90AF9065
:1021C0009F908F907F906F905F904F900C945307EB
:1021D000A114F4E0BF06D1F2C5010E945D1E811179
:1021E00001C001502FEFA21AB20A0111F1CF1C82D7
:1021F0001B82662463944AE0542E85010F5F1F4FB3
:10220000C5010E945D1E89831A82882309F4BECF0E
:102210009FEF980F933008F58A83698232E0A30E0E
:10222000B11CC8010E945D1E8B83882309F4AECFC8
:102230008E010F5F1F4FF80120812223F1F2213020
:1022400009F043C091818281913049F40E5F1F4FA4
:102250000E94E60B0F5F1F4FEECF5801E9CF92307F
:1022600029F40E5F1F4F0E94CF07F4CF933029F45B
:102270000E5F1F4F0E949607EDCF943019F00F5F4D
:102280001F4FE8CF0E5F1F4F30E020E0B8016F5FB7
:102290007F4FF80141818053990B8A30910550F0AE
:1022A00021503109B8F28FE99FE00197F1F700C0A2
:1022B0000000F6CF529EF001539EF00D11249C01B8
:1022C0002E0F3F1F842F8B01E1CFE22FF0E0E65766
:1022D000FC4F7490822F86958695869590E0FC0140
:1022E000E658FC4F84902770912C022E02C09594E2
:1022F00087940A94E2F7E1E08E229924FC01E659E2
:10230000FC4FC490D12C02C0D594C7942A95E2F713
:10231000F1E0CF22DD248114910419F081EE0E94B6
:10232000CF07C114D10419F086EE0E94CF07872D84
:102330000E94E60BCD2819F086EE0E9496078928A8
:1023400009F488CF81EE96CF81E00E946B070E944E
:1023500014071CCF81E00E943007F9CF82E0F5CF4F
:10236000063F2CE5120709F461C008F45BC027E2C0
:1023700045EE66EE073F9CE5190709F4DCC38823A8
:1023800009F4F9C3109249020230ECE51E0708F483
:1023900030C10631FCE51F0738F098012B5F3C4542
:1023A0002930310508F025C10E94AB089093F20155
:1023B0008093F10100312CE5120709F4E9C008F01F
:1023C00073C008308CE5180709F4D4C008F045C084
:1023D0000430ECE51E0709F4C1C078F502302CE5A5
:1023E000120709F4B5C08091F101826003301C45E9
:1023F00009F4B1C06091F1011091F20184E090E024
:102400000E946B1E612F81E290E00E946B1E0E9471
:102410008E0DBCCE27E245EE65EE8DC326E241EE81
:1024200060EE89C327E245EE64EE85C326E241EE05
:1024300062EE81C328E241E0EFCF06308CE5180759
:1024400009F494C08091F101886007301C4508F4BC
:1024500082C08091F10180627EC08091F1018D7F08
:102460000C30ECE51E0709F476C070F48091F101A0
:102470008C600A302CE5120709F46DC008F47EC0A8
:102480008091F1018E7F67C00E308CE5180709F44A
:102490007BC08091F1018B7F0F301C4508F45BC03D
:1024A0008091F1018F7E57C00C3FECE51E0709F4C7
:1024B00059C030F503312CE5120709F471C078F4E6
:1024C00001318CE5180709F467C002311C4509F099
:1024D00091CF0E948E0D8091F1018F773CC0053124
:1024E000ECE51E0709F464C008F478C08091F2019D
:1024F00081600B3F1C4509F07DCF8093F2017ACFBC
:1025000001153DE5130709F44FC088F48091F201ED
:102510008D7F0E3F9CE5190781F38091F2018E7F3C
:102520000F3F1C4550F38091F2018360E6CF0230EB
:10253000FDE51F0709F45BC008F446C060E0033006
:102540001D4509F057CF8EE090E00E946B1E52CFE0
:102550008091F10181608093F1014CCF8091F10174
:102560008460F9CF8091F2018260C7CF8091F10140
:102570008061F1CF8091F1018064EDCF0E948E0DDA
:102580008091F1018068E7CF8091F101877FE3CFEF
:102590008091F1018F7DDFCF8091F1018F7BDBCFC7
:1025A0008091F101837FD7CF8091F2018C7FA5CFFD
:1025B0008091F10182FB992790F921E0922790FB0D
:1025C00082F990FB83F9C7CF8091F201982F909503
:1025D00091708E7F892B90FB81F98FCF0E948E0D99
:1025E0009091F101892F97FB87F98058B4CF61E072
:1025F000AACF06319CE5190709F0CAC28091E20111
:102600008A7A91E009F490E09093830169E2811164
:1026100065E38CE591E00E94CE050E940906B6CDE7
:102620000E948E0DEFEFF4E32CE0E150F0402040EB
:10263000E1F700C000000E9451050E94240DA6CDC4
:10264000C8010E944E06D82EBAC2212F2F70A22E8A
:10265000107F19F0A29490EFA922DD20C9F0AA20E2
:1026600069F080E2800F883010F081100BC08091FB
:10267000E201A82AA092E2010E940906802F0E948E
:10268000CF0718C08091E101A82AA092E101F4CF00
:10269000802F0E949607AA2069F0A094005E08305F
:1026A00010F081103BC08091E201A822A092E201CB
:1026B0000E940906EB2DE850FF0B349710F40E949E
:1026C0004508CC2009F427CD8091DF0180FD23CD82
:1026D000F70112828595859585950E946B07C70144
:1026E0000E946A108091DF018595859585950F90F0
:1026F0000F900F900F900F90DF91CF911F910F913E
:10270000FF90EF90DF90CF90BF90AF909F908F9011
:102710007F906F905F904F900C9430078091E10113
:10272000A822A092E101C4CF312F3F70932E107FD9
:10273000103219F0929480EF9822882071F081E095
:10274000881661F1DD20B9F1AA2071F1F7018581C8
:1027500080FF94CF8F70858327C0DD2091F090910A
:10276000E301892D892BA11003C00E94B706A2CFD7
:10277000E1E0AE12FACF981709F49CCF8093E30101
:1027800099CFA11006C00E940306892D0E94AC06B5
:1027900091CFF1E0AF1609F48DCFF5CFDD2031F008
:1027A00025E02A1508F486CF892DDFCF34E03A15CD
:1027B00008F480CFEACFAA2041F3F9E38F1291C148
:1027C0002FEF37EE83E0215030408040E1F700C02A
:1027D000000087C1812F86958695837061F08130D6
:1027E00009F068CFC8019370D11002C090E080E07A
:1027F0000E94C1065FCFC8019370D11002C090E063
:1028000080E00E94D70656CF802FDD2029F00E945D
:10281000E9040E947D054ECF0E942404FACF812F47
:10282000837009F066C0D11045CF802F82958695C0
:102830008770880F880F602F6F70462E512C712C77
:10284000612C082E04C0440C551C661C771C0A948D
:10285000D2F740E050E0BA0104FF0FC04FE050E073
:1028600060E070E004C0440F551F661F771F8A9513
:10287000D2F74095509560957095812F86958695F5
:102880008370823019F1D8F40091E4011091E501D0
:102890002091E6013091E701813069F04429552902
:1028A00066297729CB01BA01602371238223932300
:1028B0000E948C07FFCE402A512A622A732ACB013C
:1028C000BA016429752986299729F2CF4429552907
:1028D000662977290091E4011091E5012091E60134
:1028E0003091E701CB01BA01602771278227932736
:1028F000DFCF8695DD2011F0812F8170882309F4C8
:10290000D9CE802F829586958770880F880F602F8B
:102910006F70462E512C712C612C082E04C0440C73
:10292000551C661C771C0A94D2F740E050E0BA01AF
:1029300004FF0FC04FE050E060E070E004C0440FBF
:10294000551F661F771F8A95D2F740955095609561
:102950007095812F869586958370823019F1D8F411
:1029600000914A0210914B0220914C0230914D028D
:10297000813069F04429552966297729CB01BA01AC
:1029800060237123822393230E940A0793CE402A57
:10299000512A622A732ACB01BA0164297529862932
:1029A0009729F2CF442955296629772900914A02AF
:1029B00010914B0220914C0230914D02CB01BA0193
:1029C0006027712782279327DFCF1F70DD2029F032
:1029D000812F0E946B07802FC8CE802F0E94AC06EB
:1029E000812F0E94300766CE802F92EF891609F45E
:1029F00050C0981578F0E0EF8E1619F1F1EF8F16B0
:102A000009F43FC0DD2009F467C0A11037CE812F43
:102A10008F713CC023EF821609F440C034EF83125B
:102A2000F1CFDD2009F44DC01F71812F0E946B078B
:102A3000E8E01E9FC001112483608093DF01812F95
:102A400025C0DD20C9F084E08A1508F433CE1F715B
:102A500061E070E080E090E004C0660F771F881F9F
:102A6000991F1A95D2F700914A0210914B022091BA
:102A70004C0230914D02A4CF95E09A1508F41ACE7D
:102A8000E6CF812F8F71DD2009F4ABCF0E946B0759
:102A900011CE812F8F71DD20C9F3A3CF60E070E0EC
:102AA000CB01DD2009F470CF1F7161E070E080E0A0
:102AB00090E004C0660F771F881F991F1A95D2F700
:102AC00063CF81E00E945307F1E0FA1508F0F2CDE0
:102AD00082E00E945307EECDAA2039F0893309F431
:102AE0006FCE802F0E949607E5CD812F8F7179CF11
:102AF0000031FFE51F0709F427CC01312FE512074C
:102B000009F42CCC043F2CE5120709F487CC08F01B
:102B100027CC093D9CE5190709F47CCC0A3DECE57E
:102B20001E0709F487CC083DFCE51F0709F027CCF8
:102B300026E241EE61EEC7010E94F90B27CB00317E
:102B40003FE5130709F406CC01319FE51907D1F6DB
:102B500082E001CC85E0DE01119601900D928A950C
:102B6000E1F7F701228189819A812111EACA0E9445
:102B70004E06182FEECA06311C4599F48091830148
:102B800069E2811165E38CE591E00E94A40545CDE1
:102B900001152CE5120709F443CD0F3D1C4509F43E
:102BA0004CCDF70100811181882309F449CDC8017A
:102BB0000E94760AD82E682FC8010E947606B801B6
:102BC0008D2D0E94EC088C01882EF701A580A2941F
:102BD0003FE0A322D280D1101092E1018091DF0169
:102BE000877099F0DD2089F0812F807F803421F07B
:102BF00080E2800F883048F082E00E945307809185
:102C0000DF018770CC24C3948111C12CB12EB29402
:102C10002FE0B222FBE0FB1508F44CCDEB2DF0E0E9
:102C2000E754F14E0C943C1E1F93CF93DF93809199
:102C30008901807FA9F480918601882389F08091A1
:102C4000BB01D0918A016091840170918501A091AE
:102C50008701B0918801C62FC72316E0D81304C09E
:102C6000DF91CF911F91089590E0109711F0CF3F21
:102C700019F401968770F2CF189F9001199F300DBB
:102C80001124F901E557FE4F41814713F2CF4081EE
:102C90004613EFCF42814111ECCF438154814A1B4F
:102CA0005B0B483C510528F7809189018F7080614A
:102CB00080938901F901E057FE4F80818F70806118
:102CC000808384E891E00E946A10DF91CF911F9188
:102CD0000C94A206AF92BF92CF92DF92EF92FF9236
:102CE0000F931F93CF93DF93CDB7DEB761970FB6E6
:102CF000F894DEBF0FBECDBF8C0185E0F801DE0188
:102D00001D9601900D928A95E1F7F80180819181DD
:102D1000E28024E8A22E21E0B22E6091870170911A
:102D200088016115710509F43EC13091840140911B
:102D30008501232F24232F3F09F435C1C380D4807C
:102D4000F0908601F601E61BF70BFF2009F4FBC0AB
:102D500020918901522F507FE83CF10508F0BBC05B
:102D6000511178C0FE2C491321C038131FC0E11047
:102D70001DC02F70206120938901C5010E946A1037
:102D800080918901F80185838F2D61960FB6F894A3
:102D9000DEBF0FBECDBFDF91CF911F910F91FF908E
:102DA000EF90DF90CF90BF90AF900895CD2829F09D
:102DB000282F29232F3F09F014C120E0F22FF170B2
:102DC000DF2E20FF3DC02091BB0140918A0156E0DB
:102DD000241315C08D879E878D859E850E94B80A15
:102DE000292F22952F702230F8F0243020F59F7083
:102DF000F9F0F8019581907FD9F4D12C1FC030E013
:102E0000529FF001539FF00D1124E557FE4F618151
:102E1000961306C06081861303C06281E61210C05B
:102E20002F5F3F4F2770D4CF9F7011F0882329F375
:102E3000805E883010F3C8010E946A10FD2CA4CF78
:102E4000EE2009F4A1CF80918901816080938901EE
:102E5000F12C9ACF491312C0381310C0E1100EC0E4
:102E6000F8012583C8010E946A1086E0F801A4E8F1
:102E7000B1E001900D928A95E1F786CF8D879E870C
:102E80008D859E850E94C20A882309F1EE20F9F003
:102E900080918901803270F0209184013091850108
:102EA00038872F831986DB86CA868C87CE010796E2
:102EB0000E946A1086E0F801A4E8B1E001900D924A
:102EC0008A95E1F70E941416FF24F3945DCFC801A0
:102ED0000E946A10F9CF51110AC084E891E00E9463
:102EE0006A1086E0F50111928A95E9F7B1CF49138E
:102EF0000FC038130DC0E1100BC0F8012583C801C5
:102F00000E946A1086E0F50111928A95E9F73CCF9C
:102F10008D879E878D859E850E94C20A8823B9F27F
:102F2000EE20A9F280918901803220F22091840163
:102F3000309185013A8329831B82DD82CC828E8386
:102F4000CE010196B5CFE83CF105E0F6FE2CEE206F
:102F500009F4BDCF491316C0381314C080918901FC
:102F600080FD83CF982F907F09F47FCFF801858370
:102F7000903F09F477CF982F907F905F8F70892BC7
:102F8000858370CF8D879E878D859E850E94C20A1E
:102F9000811190CF80918901816080938901C8015E
:102FA0000E946A10F1CEEE2009F491CF8D879E87A2
:102FB0008D859E850E94C20AF82E882309F487CF4A
:102FC00086E0F801A4E8B1E001900D928A95E1F75E
:102FD00080918401909185010E94B80A0E94141684
:102FE000D3CE21E02E25EACE1F93CF93DF93CDB72A
:102FF000DEB767970FB6F894DEBF0FBECDBF4B8B21
:103000005C8B6D8B7E8B8F8B1A8A198A85E0FE0113
:103010007396DE011D9601900D928A95E1F786E088
:10302000FE013D96DE01179601900D928A95E1F71B
:10303000CE0107960E946A16882389F016E08091D7
:10304000BB0190918A01891349C067960FB6F89425
:10305000DEBF0FBECDBFDF91CF911F91089586E0F7
:10306000FE013796DE01119601900D928A95E1F7E7
:103070008A859B85892B11F38F81988589238F3FC2
:10308000E9F220918A0130E0C90101968770992701
:103090004091BB014817190671F40E948E0D1092E1
:1030A0008A011092BB0186E0E4E8F1E0DF011D92A5
:1030B0008A95E9F7C3CF96E0929FD001939FB00D18
:1030C0001124A557BE4FFE01319601900D929A959D
:1030D000E1F780938A010E94A206B0CF819FC001D0
:1030E000112485579E4F0E946A16882309F4ADCF9C
:1030F0008091BB0190E00196877099278093BB0176
:103100009ECF1F920F920FB60F9211242F933F93D1
:103110004F935F936F937F938F939F93AF93BF93DF
:10312000CF93DF93EF93FF93D091E900DF7080910D
:10313000EC00C82FC17080FDC0E81092E9008091BA
:10314000F000877F8093F00078940E94A30D109286
:10315000E9008091F00088608093F000CD2BCF7063
:10316000C093E900FF91EF91DF91CF91BF91AF91B3
:103170009F918F917F916F915F914F913F912F918F
:103180000F900FBE0F901F9018951F920F920FB6C1
:103190000F9211242F933F934F935F936F937F93DD
:1031A0008F939F93AF93BF93EF93FF938091E10031
:1031B00082FF09C08091E20082FF05C08091E1009A
:1031C0008B7F8093E1008091DA0080FF24C08091A2
:1031D000D80080FF20C08091DA008E7F8093DA00D3
:1031E0008091D90080FF9FC080E189BD82E189BDC7
:1031F00009B400FEFDCF81E080933D02809118026A
:10320000811109C00E9497020E9462038091E2002E
:1032100084608093E2008091E10080FF17C080917C
:10322000E20080FF13C08091E2008E7F8093E20075
:103230008091E20080618093E2008091D8008062FA
:103240008093D80019BC85E080933D028091E10015
:1032500084FF2DC08091E20084FF29C080E189BDF8
:1032600082E189BD89B5982F917080FFFBCF809155
:10327000D8008F7D8093D8008091E1008F7E80936D
:10328000E1008091E2008F7E8093E2008091E20075
:1032900081608093E20080913E02882309F449C056
:1032A00084E080933D020E948E0D0E94450880912B
:1032B000E10083FF27C08091E20083FF23C080915B
:1032C000E100877F8093E10082E080933D021092CD
:1032D0003E028091E1008E7F8093E1008091E200C8
:1032E0008E7F8093E2008091E20080618093E20013
:1032F00042E060E080E00E9430038091F00088604E
:103300008093F000FF91EF91BF91AF919F918F91CA
:103310007F916F915F914F913F912F910F900FBED1
:103320000F901F90189519BC10923D021092180230
:1033300072CF8091E30087FD93E090933D02B3CF7D
:10334000CDB7DEB7AA970FB6F894DEBF0FBECDBFDC
:1033500084B7877F84BF0FB6F894A89580916000EA
:10336000886180936000109260000FBE80E890E05A
:103370000FB6F89480936100909361000FBE85B7FB
:10338000806885BF85B7806885BF0E9497020E94CC
:1033900062038091E20084608093E20078948091DF
:1033A0003D028823A1F01091E9001F709091EC007C
:1033B000892F817090FD80E8182B1092E900809190
:1033C000E80083FD0E94A30D1F701093E90082E0C6
:1033D00084BD93E095BD9AEF97BD80936E000CE39A
:1033E00011E089E4E82E81E0F82EF80181918F0147
:1033F0000E945108E016F106C1F784EF0E945108BF
:1034000085EF0E94510886EF0E94510887EF0E94C5
:1034100051081092EA011092E90110920D021092E7
:103420000C021092EC011092EB0110920F0210921C
:103430000E021092EE011092ED0110921102109204
:1034400010021092F0011092EF01109213021092EC
:1034500012020E945D0CFFEF26E741E0F150204090
:103460004040E1F700C000000E945D0C80910C021A
:1034700080FF17C06FEF82E290E00E946B1E6FEF3B
:1034800083E290E00E946B1E6FEF84E290E00E9466
:103490006B1E6FEF7FEF90E080E00E94891E0E941C
:1034A000510590E080E00E94651E8C3E9E4F11F019
:1034B0000E94240D82E290E00E945D1E813209F09C
:1034C00050C383E290E00E945D1E873009F049C33B
:1034D00084E290E00E945D1E833009F042C390E0D8
:1034E00080E00E94651E8C3E9E4F11F00E94240DCC
:1034F00082E090E00E945D1E809303020E94AB0870
:103500009093F2018093F10183E090E00E945D1EB0
:10351000682F70E090E080E00E948C0780E091E0EE
:103520009093F4018093F30152E0652EBB24BA948A
:103530006AE3262E70E1772EE8E63E2EFAE14F2E62
:10354000A9E05A2EAA24A394B8E1EB2EF12C809185
:103550003D02853009F43FC10E945D0CACE0B2E051
:10356000E4E0F2E010E000E0602F8D919D91219168
:1035700031912817390709F46DC12827392770E0E0
:10358000CC24C394D12CA9014C215D21452B09F4F5
:103590005BC179A36AA39C012C213D2191E0232BDF
:1035A00009F490E09BA30E9471058160782F9DA390
:1035B0008CA349A15AA16BA18DA10E94F417000F01
:1035C000111FF801EC5FFD4F80819181C826D9263B
:1035D000D182C08286E0ECEFF1E0DE01119601902D
:1035E0000D928A95E1F7D090FE01C090FF011091F5
:1035F0000002009101021092FE011092FF01109250
:103600000002109201028D2D8C2909F448C080918E
:10361000FA019091FB010E9462059C019091F901D1
:10362000992309F4C5C223333105C8F19F3F19F02E
:103630009F5F9093F901DD2059F00E94C9049FEF2C
:103640001D140CF491E0899F802D11248093FE01BC
:10365000CC2059F00E94C9049FEF1C140CF491E097
:10366000899F802D11248093FF013091FE01332327
:10367000B1F02091FF01222391F045EB3403C0010A
:103680001124992309F4FCC09093FE0145EB240317
:1036900090011124332309F4F6C03093FF01812FE8
:1036A000802B09F448C08091F7019091F8010E94A5
:1036B00062059C019091F601992309F474C22536A4
:1036C0003105C8F19F3F19F09F5F9093F6011123D8
:1036D00059F00E94A7049FEF11160CF491E0899F06
:1036E000802D112480930002002359F00E94A7042A
:1036F0009FEF10160CF491E0899F802D1124809388
:103700000102309100023323B1F020910102222303
:1037100091F045EB3403C0011124992309F4B6C09C
:103720009093000245EB240390011124332309F404
:10373000B0C0309301028091FE019091FF01892B6E
:1037400090910002892B90910102892B11F00E9427
:103750007D0586E0FE013196ACEFB1E001900D925F
:103760008A95E1F70E94450890910202891721F09D
:103770000E9445088093020280913D02843009F046
:10378000E6CE83E08093E9008091E80082FFDFCEFF
:103790008091E80090E085FF0CC00E94B60230E204
:1037A000C32ED12C8E010F5F1F4F882309F47EC0DA
:1037B00091E08091E8008B778093E800992309F4E9
:1037C000C6CEE981E150E33108F0F4C0F0E0EB53FC
:1037D000F14E0C943C1E80913D02843011F1109208
:1037E000F50180E40FB6F894A895E09260000FBE52
:1037F0008093600083B7817F846083BF83B78160DB
:1038000083BF7894889583B78E7F83BF0FB6F89473
:10381000A89580916000886180936000109260009C
:103820000FBE80913C02882309F491CE0E945D0C6A
:10383000ECE0F2E081919191892B09F07DC122E0C9
:10384000E431F207B9F783CE7F5FCC0CDD1C7D300D
:1038500009F099CE0F5F1F4F0430110509F084CE97
:10386000BEA2BFA218A60E9471058160782F9AA7F8
:1038700089A74EA15FA168A58AA50E94F417AACEC8
:10388000A092FE0103CFA092FF0109CFA0920002F7
:1038900049CFA09201024FCF8091F100F8018193AE
:1038A0008F01F1E0CF1AD10809F482CF8091E800AE
:1038B00085FDF2CF8091E8008B778093E8000E942D
:1038C000B602882399F374CF1A825B8280913D02FD
:1038D000843009F03CCE1091E9001F709091EC000B
:1038E000892F817090FD80E8182B6092E90080910B
:1038F000E80080FF0DC050E040E060E270E0CE01E3
:1039000001960E94E7028091E8008E778093E8009C
:103910001F701093E9001BCE8A81823009F43AC1EE
:103920008330A9F0813009F045C02FB7F894609139
:1039300014027091150280911602909117022FBF08
:103940000E94421E6B837C838D839E83BFCF8091B8
:103950000C0290910D029827892798279C838B83CE
:1039600080910E0290910F029827892798279E83B5
:103970008D838091100290911102982789279827B2
:1039800098878F838091120290911302982789273C
:1039900098279A8789879ACF8A81823059F46B81D8
:1039A0007C818D819E810E94421E85E290E00E9472
:1039B0006B1E8CCFB9828ACF4C816B818A810E9429
:1039C000B9089827892798279E838D837FCF0D81FB
:1039D0001E811027012710278A81CB80C49C60019B
:1039E0001124839DC00CD11C11248C8190E0880F80
:1039F000991FC80ED91E612FC60186960E946B1EA4
:103A0000602FC6018796D3CF0E94E60A5FCF7A82E5
:103A10005DCF6A822B825ACF0A811B811027012732
:103A20001027CE0101966C018C80FC01E80DF11D80
:103A30004F01C8018A539E4F8C149D0409F446CF50
:103A40000A33F2E01F0750F40E945D1EF6018483E2
:103A50000F5F1F4FFFEFCF1ADF0AEBCFF601148283
:103A6000F7CF0A811B81102701271027CE0101966D
:103A70004C01CC80C00ED12ED11CC8018A539E4F60
:103A8000C016D10609F422CF0A33E2E01E0720F463
:103A9000F40164810E946B1EFFEF8F1A9F0A0F5F73
:103AA0001F4FEBCF0E943B0B11CF24E02A830ECF98
:103AB0000A811B81102701271027CE0101966C0176
:103AC0008C80FC01E80DF11D4F01C8018696C814D9
:103AD000D90409F4FBCE003AF1E01F0750F40E942C
:103AE0005D1EF60184830F5F1F4FFFEFCF1ADF0AC1
:103AF000ECCFF6011482F7CF0A811B811027012732
:103B00001027CE0101964C01CC80C00ED12ED11CC5
:103B1000C80186960C151D0509F4D8CE003AE1E0DF
:103B20001E0720F4F40164810E946B1EFFEF8F1AC0
:103B30009F0A0F5F1F4FECCF79BC82E189BD09B4AA
:103B400000FEFDCF8091D8008F7D8093D8008091BA
:103B5000E00082608093E0008091E00081FDFCCF76
:103B6000F6CC60E085E290E00E946B1E0E94E60ABF
:103B70000E943B0B61E282E290E00E946B1E67E0D4
:103B800083E290E00E946B1E63E084E290E00E947A
:103B90006B1EA5CC85E290E00E945D1E1B821C82FC
:103BA0001D828E8393CE2D32314008F08DCDC3CD52
:103BB0002D32314008F03CCD72CD78941F921FB663
:103BC0001F9211248F939F93AF93BF938091140200
:103BD00090911502A0911602B09117020196A11DB5
:103BE000B11D8093140290931502A0931602B09316
:103BF0001702BF91AF919F918F911F901FBE1F9091
:103C000018951F921FB61F9211248F939F93AF9305
:103C1000BF938091F501811113C08091140290919E
:103C20001502A0911602B09117024196A11DB11D77
:103C30008093140290931502A0931602B09317027A
:103C4000BF91AF919F918F911F901FBE1F901895AC
:103C500097FB072E16F4009407D077FD09D00E9439
:103C6000491E07FC05D03EF4909581959F4F08951D
:103C7000709561957F4F0895EE0FFF1F0590F491A9
:103C8000E02D0994692796276927782787277827C1
:103C90000895AA1BBB1B51E107C0AA1FBB1FA61793
:103CA000B70710F0A61BB70B881F991F5A95A9F7E5
:103CB00080959095BC01CD010895F999FECF92BDF4
:103CC00081BDF89A992780B50895A8E1B0E042E057
:103CD00050E00C94911E262FF999FECF92BD81BD24
:103CE000F89A019700B4021639F01FBA20BD0FB63A
:103CF000F894FA9AF99A0FBE08950396272F0E9416
:103D00006C1E0E946B1E252F0E946C1E242F0C948B
:103D10006C1E0196272F0E946C1E0C946B1EDC01FA
:103D2000CB01FC01F999FECF06C0F2BDE1BDF89AC6
:103D3000319600B40D9241505040B8F70895F89470
:103D4000FFCFD10AD10ADA0ADA0ADC0ADA0ADA0A79
:103D5000DA0AD10AD10AE10ADA0ADA0AE10A880E95
:103D6000B00E030FB00E030FE30E1B0F030F18105E
:103D700025102513251394139413EA1304145A13CE
:103D80005A130F14E514F414F414641C8C1CCC1C8A
:103D9000DC1CE71C041DDA1CDA1CDA1CDA1CDA1C39
:103DA000071D091D0C1D311D521D551D581D7C1D63
:103DB0002104A60B850B810B7D0B01818283E20020
:103DC000E900EA00B500B600B700CD008301CC00E1
:103DD0008A01920194012102230224022502260273
:103DE00027022A02B300B4006F007000919094661D
:103DF00097C634353632333193F4F5F6F74022BCAA
:0C3E00008A016801AC001C043504550464
:00000001FF
