:100000000C94F2020C9439030C9439030C943903C8
:100010000C9439030C9439030C9439030C94390370
:100020000C9439030C9439030C94CA190C94861956
:100030000C949C1F0C9439030C9439030C943903D1
:100040000C9439030C9439030C9439030C94390340
:100050000C9439030C94781F0C9439030C943903D5
:100060000C9439030C9439030C9439030C94390320
:100070000C9439030C9439030C9439030C94390310
:100080000C9439030C9439030C9439030C94390300
:100090000C9439030C9439030C9439030C943903F0
:1000A0000C9439030C9439030C94390305010902AB
:1000B000A10185020901A100050919012905150001
:1000C00025019505750181029501750381010501E1
:1000D000093009311581257F950275088106093897
:1000E0001581257F950175088106050C0A380215D2
:1000F00081257F950175088106C0C005010980A191
:1001000001850319012AB700150126B7009501756D
:10011000108100C0050C0901A101850419012AA064
:1001200002150126A002950175108100C005010984
:1001300006A1018505050719E029E71500250195A8
:1001400008750181020507190029EF1500250195A1
:10015000F0750181020508190129059505750191C0
:1001600002950175039101C00660FF0961A10109B3
:1001700062150026FF0095207508810209631500AD
:1001800026FF00952075089102C005010906A1010E
:10019000050719E029E71500250195087501810279
:1001A0009501750881010507190029FF150026FF33
:1001B0000095067508810005081901290595057542
:1001C000019102950175039101C0290014001A00E4
:1001D0000800150017001C0018000C001200130086
:1001E0004C002A002B0004001600070009000A003A
:1001F0000B000D000E000F00330028000000E1008E
:100200001D001B000600190005001100100036003B
:100210003700520001510000E000E300E2002C0032
:10022000000000002C0000000251500051004F005F
:100230000000290014001A000800150017001C0017
:1002400018000C00120013004C002A002B000400C0
:100250001600070009000A000B000D000E000F0039
:10026000330028000000E1001D001B0006001900FB
:100270000500110010003600370052000151000047
:10028000E000E300E2002C00000000002C00000071
:100290000251500051004F000000290014001A00C4
:1002A0000800150017001C0018000C0012001300B5
:1002B0004C002A002B0004001600070009000A0069
:1002C0000B000D000E000F00330028000000E100BD
:1002D0001D001B000600190005001100100036006B
:1002E0003700520001510000E000E300E2002C0062
:1002F000000000002C0000000251500051004F008F
:100300000000290014001A000800150017001C0046
:1003100018000C00120013004C002A002B000400EF
:100320001600070009000A000B000D000E000F0068
:10033000330028000000E1001D001B00060019002A
:100340000500110010003600370052000151000076
:10035000E000E300E2002C00000000002C000000A0
:100360000251500051004F0000000000000000004A
:1003700000000000000000000000000000007E0FF0
:1003800000D4FFFFFFC7000000780000000000005D
:1003900000002A2B280000000000000000000000E0
:1003A000000000000029000000002C1E3420212243
:1003B00024342627252E362D3738271E1F202122AC
:1003C000232425263333362E37381F040506070825
:1003D000090A0B0C0D0E0F10111213141516171815
:1003E000191A1B1C1D2F3130232D35040506070853
:1003F000090A0B0C0D0E0F101112131415161718F5
:10040000191A1B1C1D2F3130354CFD377A585A00F4
:100410000004E6D6B4460200210116000000742F45
:10042000E5A3E0022B00EA5D003D8889C65436C38F
:10043000174FE4E87F5F86E4A1A67F92006F322C1D
:1004400075C54896F8128875105D4AC4730172FC30
:10045000B9A548128138F85D0F6CBD5AA238BA337D
:100460006C524FDB21DDE1BB1B44381D23DF6CEDFB
:100470006568B19B59098C58417D9CA16C194BBA98
:10048000FAE04DF9CB71331919670B712912DC6A47
:10049000C01EA3192B8559852D2B186594C8CBE850
:1004A000678F502A1130CB0F2864C36B87C7E29E39
:1004B000BFCAB22A5637F25CA58F51910374A87750
:1004C000A04C501B58F77F7D4B775B93BA2EC2DF51
:1004D000D7CCB389858A24D5C7F2DBA54EB1CCF041
:1004E0000CF505526826B0A6ECF58C9819E3E742A6
:1004F000CB5535D54E716B27632DFBFB0AF265ABEF
:10050000D9CF6C142CE9990960CF78567DB5711656
:100510003FEF93000000B49693071ED803610001DB
:100520008602AC040000197EC871B1C467FB0200EA
:1005300000000004595A09025B00030100A0FA09F7
:100540000400000103010100092111010001224002
:10055000000705810308000A0904010002030000E6
:100560000009211101000122220007058203200059
:100570000107050303200001090402000103000034
:100580000009211101000122BC000705840320009D
:100590000A12011001000000082762220001000178
:1005A0000203011C037600690061006C003A0066DA
:1005B0000036003400630032006200330063000044
:1005C000000A03570061006E006700000010036717
:1005D0000072006C00640074006D006B0000000489
:1005E0000309040011241FBECFEFDAE0DEBFCDBF48
:1005F00004B603FE27C080915A0290915B02A0913D
:100600005C02B0915D028730904BA740B04BD1F4B3
:1006100010925A0210925B0210925C0210925D02DC
:1006200014BE84B7877F84BF0FB6F894A8958091D5
:100630006000886180936000109260000FBEE0E06F
:10064000F8E3099511E0A0E0B1E0E0EEF0E402C0CB
:1006500005900D92A436B107D9F722E0A4E6B1E0E7
:1006600001C01D92AA35B207E1F70E94A51A0C94A9
:100670004A200C940000E8EDF0E080818E7F8083BA
:100680001092E2001092DA001092E100A0EEB0E0C9
:100690008C9181608C9380818F77808319BCA7EDCA
:1006A000B0E08C918E7F8C9380818F7E80831092BE
:1006B000270208952091E4003091E50095E6A90114
:1006C0002091EC00822F817020FF06C08091E8000D
:1006D00080FF06C080E008952091E80022FD1AC046
:1006E00080915502882389F0853089F08091EB0054
:1006F00085FD0FC02091E4003091E50042175307BB
:10070000F9F29150E1F684E0089582E0089583E0E3
:10071000089581E00895EF92FF920F931F93CF9376
:100720007C018B010E945A03C82F811117C0809150
:10073000E80085FD0BC08091E8008E778093E8008B
:100740000E945A03882399F3C82F08C0F7018191AA
:100750007F018093F1000150110949F78C2FCF914F
:100760001F910F91FF90EF900895CF93FC0180911E
:100770005502843001F5C091E900CF702091EC0062
:10078000922F917020FD90E8C92B82E08093E900C0
:100790008091E80080FF0CC050E040E060E270E033
:1007A000CF010E948B038091E8008E778093E80050
:1007B000CF70C093E900CF91089580914D0287FFDB
:1007C00013C08091E80082FF06C08091E8008B771B
:1007D0008093E80004C0809155028111F2CF089502
:1007E000809155028823D9F38091E80080FFF8CFEB
:1007F0008091E8008E77ECCF982F9093E900242F1A
:10080000762F50E0891731F07091EC002091ED00C7
:100810005091F00021FD07C09F5F973071F78093E2
:10082000E90081E008953091EB003E7F3093EB00CA
:100830003091ED003D7F3093ED003091EB00316061
:100840003093EB007093EC002093ED005093F00098
:100850002091EE0027FDE0CF80E00895CF92DF9257
:10086000EF92FF920F931F93CF93DF93C8EDD0E0E9
:1008700088818F7E8883E7EDF0E0808181608083CE
:1008800084E082BF81E08093270288818E7F888305
:1008900002EE10E0F80110821092DA0081EEC82E0C
:1008A000D12CF601108288818F77888388818068B7
:1008B000888388818F7D888319BC1092550210929D
:1008C0004C0210924B0210924A0290EEE92EF12C4B
:1008D000F70180818B7F808388818160888342E0FB
:1008E00060E080E00E94FC03F60180818E7F8083BF
:1008F000F801808181608083808188608083F70136
:1009000080818E7F8083888180618883DF91CF9111
:100910001F910F91FF90EF90DF90CF900895FC0111
:10092000809153029091540286179707A0F06115A9
:10093000710529F49091E8009E779093E80090E08B
:100940006115710551F4911108C08091E80082FF92
:1009500034C080E00895BC01F2CF80915502882315
:10096000C1F18530C1F18091E80083FD30C08091F4
:10097000E80082FDEACF8091E80080FFE1CF80911E
:10098000F3002091F200382F6115710519F028301D
:10099000310558F091E02830310509F090E02091C0
:1009A000E8002E772093E800CBCF81918093F1006F
:1009B000615071092F5F3F4FE7CF80915502882327
:1009C00041F0853041F08091E80083FFBECF81E0A7
:1009D000089582E0089583E00895809129020895A2
:1009E00090911102803F59F48091120287FF0DC04F
:1009F0001092120291110BC010920C0208C0813F9C
:100A000081F48091120218169CF3992381F0809151
:100A1000130290911402892B09F064C0109209020C
:100A20000895823F49F497FFF0CF10921102809110
:100A300012028111ECCFE0CF833F19F41916ACF309
:100A4000E4CF20911302893F29F41216F4F6109294
:100A50001302DBCF8A3F19F427FFD7CFF8CF2091BD
:100A600014028B3F29F427FFD0CF10921402CDCF70
:100A70008C3F19F41216CCF3C8CF843F31F4809127
:100A800010028E7F80931002C0CF853F21F48091A9
:100A900010028D7FF7CF863F21F4809110028B7F6B
:100AA000F1CF873F21F480911002877FEBCF883F01
:100AB00021F4809110028F7EE5CF8D3F31F480913B
:100AC000F3018E7F8093F301A0CF8E3F21F48091BC
:100AD000F3018D7FF7CF8F3F09F097CF8091F3011E
:100AE0008B7FF0CF08958091F30180FD16C081FDCA
:100AF00016C082FD16C0809109028823A1F08832B9
:100B000080F428E0829FC001112468E270E00E9416
:100B1000C31F862F672B39F0089582E0089584E083
:100B2000089588E0089581E008958091F30180FDA3
:100B300014C081FD14C082FD16C080910C02882370
:100B400081F0843180F422E3829FC001112464E1AA
:100B500070E00E94C31F862F08958CE0089589E1FC
:100B6000089585E0089582E30895803F31F40E945E
:100B700095058195809312020895813F19F40E9492
:100B80009505F8CF823F31F40E94950581958093B9
:100B900011020895833F19F40E949505F8CF893F0B
:100BA00029F40E9473058093130208958A3F21F46B
:100BB0000E9473058195F7CF8B3F31F40E94730536
:100BC00081958093140208958C3F19F40E94730557
:100BD000F8CF843F31F4809110028160809310023D
:100BE0000895853F21F4809110028260F7CF863FFF
:100BF00021F4809110028460F1CF873F21F480912D
:100C000010028860EBCF883F21F480911002806150
:100C1000E5CF8D3F31F48091F30181608093F30142
:100C200008958E3F21F48091F3018260F7CF8F3FCA
:100C3000B9F78091F3018460F1CF87E797E790934C
:100C400001088093000888E19AE00FB6F894A8950F
:100C5000809360000FBE90936000FFCF9C014FB760
:100C6000F8948091210290912202A0912302B091E8
:100C700024024FBF821B930B08952FB7F8948091E5
:100C8000210290912202A0912302B09124022FBF51
:100C900008950E943D069C019091110280911202DC
:100CA000982B21F030930E0220930D0290911302A5
:100CB00080911402982B21F030930B0220930A02AA
:100CC000E091FE01F091FF01309749F082E08093BE
:100CD0000F020480F581E02D8FE092E009940895E1
:100CE00020910A012223C9F02091FC0127FF15C0A1
:100CF000E62FE695E695E695EE31D8F4E80FF92F64
:100D0000F11D677021E030E001C0220F6A95EAF71B
:100D100020958281282322830895FC01329608962B
:100D20002191621303C0DF0111971C92E817F907A4
:100D3000B9F7089520910A012223C1F02091FC0106
:100D400027FF14C0E62FE695E695E695EE31F8F418
:100D5000E80FF92FF11D677021E030E001C0220F8C
:100D60006A95EAF78281822B82830895FC0132968C
:100D70002FEF30E04191641751F02F3F19F44111EA
:100D800001C0232F3F5F3630A9F72F3F09F40895A4
:100D9000820F911D27FD9A95FC0162830895809131
:100DA000EE0181111092EE0108958091ED01909174
:100DB000EC01892B9091EB01892B80936401909138
:100DC000EE019923A1F0892B8093640180910A019F
:100DD000882341F18091FC0187FF24C08EE1E6E683
:100DE000F1E090E0815000F591110E94CF06E09172
:100DF000FE01F091FF013097E1F080910A01882314
:100E000059F08091FC0187FF07C0809164018093B5
:100E1000650185E0809364010280F381E02D84E622
:100E200091E0099486E0DBCF21912223D9F29F5FE4
:100E3000D9CF08952DE0929F800D1124982F97709F
:100E400086958695869525E0829FF0011124E953C9
:100E5000FE4F50E040E080E0219130E0092E02C0DA
:100E6000369527950A94E2F721703327042E01C0A6
:100E7000220F0A94EAF7822B4F5F5F4F45305105EE
:100E800059F708952DE0929F800D1124982F9770A7
:100E900041E001C0440F9A95EAF7869586958695BC
:100EA00095E0899FF0011124E953FE4F90E080E026
:100EB00070E05191DF0111979B01082E02C0369519
:100EC00027950A94E2F721702195252724232527C9
:100ED0002C9301968530910561F708958091C601A4
:100EE00090919501981301C008958F5F8770FACF94
:100EF000882341F080959091ED0189238093ED0145
:100F00000C94D5060895882339F09091ED01982B23
:100F10009093ED010C94D506089520918B013091AA
:100F20008C012817390771F090938C0180938B0105
:100F3000E091FE01F091FF01309721F00084F185EE
:100F4000E02D099408952091890130918A01281794
:100F5000390771F090938A0180938901E091FE0135
:100F6000F091FF01309721F00680F781E02D099480
:100F700008951092EC011092EB010E94D50686E0D4
:100F8000EFE0F2E0DF011D928A95E9F710920C0282
:100F9000109209021092F3010E94490690E080E04D
:100FA0000E94A30790E080E00C948D0760935602A6
:100FB0007093570280935802909359020C94B9078A
:100FC0000F931F93609156027091570280915802BF
:100FD000909159028B019C0106701127222733271B
:100FE000063011052105310529F468601F910F9124
:100FF0000C94D607677FFACF0F931F9341E050E020
:1010000060E070E004C0440F551F661F771F8A958B
:10101000D2F7CB01BA0160957095809590950091BB
:1010200056021091570220915802309159026023C4
:101030007123822393231F910F910C94D6079091D3
:10104000EA01809589238093EA01282F277071F4A3
:10105000282F082E000C330B9217130639F08595B4
:10106000859585950E94FC071092EA0108950F93DB
:101070001F9341E050E060E070E004C0440F551F52
:10108000661F771F8A95D2F780915602909157027A
:10109000A0915802B09159028A019B01082B192B8B
:1010A0002A2B3B2BC901B8011F910F910C94D60735
:1010B0006093EF017093F0018093F1019093F2013E
:1010C0000C94B9078823B1F19CEF980F913A38F44A
:1010D000682F84E691E00E9470060C94D50690E299
:1010E000980F983088F4877021E030E0A90102C0A1
:1010F000440F551F8A95E2F7CA0180959091ED0142
:1011000089238093ED01E9CF9BE5980F933020F47C
:1011100090E080E00C94A30798E5980F973120F4B5
:1011200090E080E00C948D07803F20F00E94F00456
:101130000C9449060895CF93C82F882309F46FC0F3
:101140008CEF8C0F813AC0F580910A01882311F150
:101150008091FC0187FF1EC0EC2FE695E695E69591
:10116000F0E0EC59FE4F828190E04C2F477021E077
:1011700030E002C0220F331F4A95E2F78223932307
:10118000892B91F06C2F84E691E00E9470060E94FA
:10119000D5060AC0E6E6F1E08CE691E02191C2179F
:1011A00089F38E179F07D1F76C2F84E691E00E9498
:1011B0009A06CF910C94D50680E28C0F883068F4A3
:1011C000C77021E030E001C0220FCA95EAF7809194
:1011D000ED01822B8093ED01ECCFEBE5EC0FE330DA
:1011E00040F4F0E0ED5EFE4F808190E0CF910C94F2
:1011F000A307E8E5EC0FE73150F4F0E0EE0FFF1F36
:10120000EA5EFE4F80819181CF910C948D07C03FA3
:1012100030F08C2F0E94B505CF910C944906CF91E8
:101220000895E091FE01F091FF01309721F00190C7
:10123000F081E02D099480E008959091FC0192FFE7
:1012400006C0282F28712830F9F4877F846093FF27
:1012500006C0282F28712831F1F4877E84612091FF
:10126000FD0120FF06C0382F38713830D9F4877F50
:10127000816021FF06C0282F28712831D1F4877E94
:10128000816194FD877E0895282F24712430F9F61A
:101290008B7F8860DCCF282F2471243101F78B7E6F
:1012A0008861DDCF382F3171313019F78E7F88603A
:1012B000E0CF282F2171213121F78E7E8861E1CF87
:1012C000CF93DF9300D00F92CDB7DEB79091550248
:1012D000943011F589837B836A839093E9008FEFC3
:1012E0009091E800815095FD06C095ED9A95F1F733
:1012F00000008111F5CF8091E80085FF0DC050E01E
:1013000040E063E070E0CE0101960E948B03809183
:10131000E8008E778093E8000F900F900F90DF9198
:10132000CF910895BC0184E00C946009BC0183E076
:101330000C9460099C0184E08093E9009FEF809108
:10134000E800915085FD06C085ED8A95F1F7000013
:101350009111F5CF8091E80085FF0CC050E040E08E
:1013600066E070E0C9010E948B038091E8008E77EF
:101370008093E8000895CF93DF93EC0180910A01F8
:101380008823B1F18091FC0187FF32C060E284E0E4
:101390008093E9008FEF9091E800815095FD06C0A1
:1013A00095ED9A95F1F700008111F5CF8091E80055
:1013B00085FF1BC080910A0170E050E040E0811180
:1013C00004C050E040E068E070E0CE010E948B0372
:1013D0008091E8008E778093E80080E2FE01AAE227
:1013E000B2E001900D928A95E1F7DF91CF910895D7
:1013F00068E081E0CDCFCF93C82F0E949B08C9330E
:1014000049F42FEF87EE93E0215080409040E1F7C0
:1014100000C000008C2FCF910C9462080F931F9393
:10142000CF93DF93C42FD22FFC0182818823A1F0B8
:1014300040938D010E943D0690938801809387011F
:10144000C77081E001C0880FCA95EAF7DF91CF919C
:101450001F910F910C94830710918D01141335C0C7
:1014600080918701909188010E942E06883C910509
:1014700060F5C0E2CD0F1D17B9F080E2810F883012
:1014800040F4177081E001C0880F1A95EAF70E94B6
:101490007807C83048F481E09D2F977001C0880F0D
:1014A0009A95EAF70E948307802F0E94FB09C830B3
:1014B00098F4D77081E001C0880FDA95EAF7DF91E0
:1014C000CF911F910F910C947807C77081E001C0F4
:1014D000880FCA95EAF7F3CFDF91CF911F910F9153
:1014E00008952F923F924F925F926F927F928F92C8
:1014F0009F92AF92BF92CF92DF92EF92FF920F93A3
:101500001F93CF93DF9364E471E090E080E0C0E04C
:1015100001E010E04CEF642E41E0742EDB012D91D0
:10152000BD01E22FE295EF70F0E031A12F7058017C
:1015300001C0AA0C2A95EAF7232F2A2921A322A168
:10154000DA2DD0952D2322A3B0EABA95F1F77801D0
:10155000082E02C0EE0CFF1C0A94E2F747018094AB
:10156000909424EF222E21E0322E31E5C32E31E07B
:10157000D32E512CD1014D915D911D01D6014D907D
:101580006D01242D22952F7030E0D90190962C9179
:1015900030E0B42DBF7002C035952795BA95E2F7BB
:1015A00020FD53C09A012E293F294217530741F0CD
:1015B000A10142505109DA012D933C9355245394D3
:1015C00062147304B9F621A1D223D1A322A1A22AC5
:1015D000A2A2C52901968D30910509F09FCFCC2399
:1015E000C1F181E0809386010E943D0690938501C0
:1015F0008093840180918401909185010E942E0640
:10160000069758F18091F4019091F50190930202B0
:10161000809301028091F6019091F701909304026A
:10162000809303028091F8019091F9019093060252
:10163000809305028091FA019091FB01909308023A
:10164000809307021092860108C09A01282139214F
:10165000ACCF809186018111CDCF8C2FDF91CF91BE
:101660001F910F91FF90EF90DF90CF90BF90AF90C0
:101670009F908F907F906F905F904F903F902F90B2
:101680000895CF9384E090E00E940820C82F81E263
:1016900090E00E940820982F8C2FCF9108950F93EF
:1016A0001F93CF93DF93843030F5643020F54D30B5
:1016B00010F5C42FD0E0CC0FDD1F2AE1629FC00DD2
:1016C000D11D112438E6839FC00DD11D1124CE01F8
:1016D00086960E940820082F10E0102F0027CE01C8
:1016E00087960E9408209801282BC901DF91CF918D
:1016F0001F910F91089590E080E0F8CF462F209140
:10170000250230912602232B49F4843038F47430BA
:1017100028F46D3018F4672F0C944F0B90E080E0A4
:101720000895CF93DF930E947E0BEC0182389105E0
:10173000A9F1D8F58133910509F496C048F58932AD
:10174000910509F48AC08A9709F495C0C11521E56D
:10175000D20708F0BCC0C11530E5D30708F014C1AA
:10176000C83ED10508F09CC0C03ED10560F5C83A1E
:10177000D10508F087C0C53AD10508F0FDC0C130D9
:10178000D10509F12097F9F0C430D105E0F440C04B
:101790008533910509F45AC0C997C1F68091FC01BF
:1017A000837089F0C0EED0E00EC0833E910599F1C0
:1017B00070F4803E910501F1823E910539F68091E9
:1017C000FC0182FD21C0CE01DF91CF910895863EBC
:1017D000910561F1873E910571F1843E910509F013
:1017E000B5CF8091FD0181FFEECF8091FC01C7EE66
:1017F000D0E084FD0DC0E7CF8091FC0180FD12C1D7
:101800009091FD0190FFDFCFC3EED0E084FFDBCFEE
:10181000D0E0C0E0D8CF8091FC0182FD06C190915C
:10182000FD0190FDBFCF84FFCECFF2CF8091FC01B0
:1018300083FDDDCFC8CF8091FC0183FDF9C090917D
:10184000FD0191FFF0CFC4EED0E0BDCF8091FC014F
:1018500085FFB9CFC9E2D0E0B6CF8091FC0185FF0A
:10186000B2CFC5E3D0E0AFCF8091FC0186FFABCF14
:10187000CAE2D0E0A8CF8091FC0186FFA4CFC1E3EB
:10188000D0E0A1CFCF3BD10518F6C85AD0E0CC0F9D
:10189000DD1FCA5EDE4F0990D881C02DD46493CF7E
:1018A000C11540E2D40758F4C11581E0D80708F00B
:1018B0008ACFC03FD10508F4ABCFD06584CFC11526
:1018C00090E4D90708F4A4CFDF70D06A7CCFC115AB
:1018D00025E5D20700F5C11534E5D30708F08AC025
:1018E000C11543E5D40708F071C0C11582E5D807DA
:1018F00008F467C0CE018370992721E030E002C070
:10190000220F331F8A95E2F7C695C69580E2C89FDD
:10191000E001112452C0C11599E5D907A8F4C115F9
:1019200028E5D20708F06BC0C11536E5D30708F0EB
:101930006FCF8C2F0E941D09C82FD0E0DC2FCC2741
:10194000CC27DF71D0623FCFC1154AE5D40708F438
:101950005BC0CE0190568115904208F059CF8D2F73
:101960008F710E941D0990E0982F882788279F710A
:101970009C012C2BE901E6CFC55AD0E0CD5EDE4FAD
:10198000C881D0E0D0641FCFCE01E4E09695879562
:10199000EA95E1F783702C2F26952695237040E277
:1019A000249F90011124382B8C2F8370C1E0D0E04C
:1019B00002C0CC0FDD1F8A95E2F7C22BD32BDC6867
:1019C00002CFDC2FCC27C16FD06AFDCECE01837051
:1019D000992721E030E002C0220F331F8A95E2F7F9
:1019E000C695C69590E2C99FE0011124C22BD32B66
:1019F000DA68E9CEDC2FCC27C46FD06AE4CEDC2FC6
:101A0000CC27C06FD06ADFCE8C2F8F700E941D094B
:101A100034E0D695C7953A95E1F7CF709C2FEC014D
:101A2000D069D1CEC9E3D0E0CECEC2EED0E0CBCEED
:101A3000C6EED0E0C8CEBF92CF92DF92EF92FF9277
:101A40000F931F93CF93DF938C01C0905602D090D9
:101A50005702E0905802F09059028091EF01909166
:101A6000F001A091F101B091F201C82AD92AEA2A25
:101A7000FB2ACFE1D0E0BC2ED701C6010C2E04C05A
:101A8000B695A795979587950A94D2F780FD0EC0D5
:101A9000219788F7B12C8B2DDF91CF911F910F915A
:101AA000FF90EF90DF90CF90BF900895B8018C2FFA
:101AB0000E94910B019761F3EECFCF93DF93EC017E
:101AC0000E941B0DBE01DF91CF910C94910B0E94DF
:101AD0005D0D292F2F7092959F7092509E3078F453
:101AE000E92FF0E0E45BFF4D0C94D71F803F19F025
:101AF00020F4883E20F481E00895843FE1F380E003
:101B00000895883EC0F3813FD1F7F5CF822F8695A7
:101B1000869586950895CF93DF93C6ECD1E060E07B
:101B2000CE010E9416202196C11584E0D807B9F78E
:101B3000DF91CF9108951F93CF93DF93122F8430BD
:101B4000F8F46430E8F44D30D8F4C42FD0E0CC0F72
:101B5000DD1F9AE1699FC00DD11D112498E6899F70
:101B6000C00DD11D1124632FCE0186960E94162030
:101B7000612FCE018796DF91CF911F910C94162093
:101B8000DF91CF911F910895AF92BF92CF92DF92D4
:101B9000EF92FF921F93CF93DF938AECC82E81E0E0
:101BA000D82ED0E07601C0E014C0F5012591349123
:101BB000412F6C2F8D2F0E949B0D82E0A80EB11C2F
:101BC0001F5F1D3091F78AE1E80EF11CCF5FC43032
:101BD00019F0570110E0E9CFDF5F88E6C80ED11C8D
:101BE000D43001F7DF91CF911F91FF90EF90DF90FC
:101BF000CF90BF90AF900895CF93C82F6FEF811112
:101C00006AED82E290E00E9416206FEFC1116EEC47
:101C100083E290E00E9416206FEFC1116BE984E22D
:101C200090E0CF910C9416201092ED0180910A0162
:101C3000E6E6F1E0882359F08091FC0187FF07C0B8
:101C40008EE1DF011D928A95E9F70C94B90786E0D1
:101C5000F8CF1F93CF93DF93CDB7DEB7AA970FB618
:101C6000F894DEBF0FBECDBF8DE492E02091F1006D
:101C7000DC012D93CD01B2E085359B07B9F780914A
:101C80004E02833009F471C0B8F4813009F448C0C1
:101C9000823009F4B2C08091E80083FF3AC180919C
:101CA0004D0290914E029A3008F033C1E92FF0E0D6
:101CB000E65AFF4D0C94D71F8A3009F48DC08B3043
:101CC00009F470C0893039F780914D02813219F7DB
:101CD0008091510290915202009711F00297D9F62B
:101CE0008091E800877F8093E8008091E80082FF80
:101CF00037C09091F3008091F200029729F480910F
:101D0000F1008B7F813021F48091F10080932902D2
:101D10008091E8008B778093E8000E94DD03BBCFC1
:101D200080914D02813A09F0B6CF8091E800877F1B
:101D30008093E8008091510290915202892B61F4C6
:101D400060E28AE292E070E00E948F048091E800F5
:101D50008B778093E8009FCF60E090E080E0F3CF46
:101D6000809155028111C1CF96CF80914D02813A69
:101D700009F091CF8091510290915202892B09F084
:101D80008ACF8091E800877F8093E8008091E80007
:101D900080FFFCCF80910A018093F1008091E800E0
:101DA0008E77B9CF80914D02813209F074CF809146
:101DB000510290915202892B09F06DCF8091E80079
:101DC000877F8093E8000E94DD0380914F0280931B
:101DD0000A010E94140E5FCF80914D02813209F0FA
:101DE0005ACF8091E800877F8093E8000E94DD034E
:101DF00080915002809328024ECF80914D02813A0B
:101E000009F049CF8091E800877F8093E8008091B6
:101E1000E80080FFFCCF80912802BECF803899F087
:101E2000823809F076C0809151028F70873008F0B7
:101E300070C08093E9008091EB0085FB882780F9D2
:101E40001092E90006C080914A0290914B029111D4
:101E500082609091E800977F9093E8008093F10072
:101E60001092F1008091E8008E77C0C1882309F4B8
:101E7000ADC1823009F04DC080914F028111B1C1D6
:101E8000809151028F702FEF280F263008F041C04B
:101E90008093E9002091EB0020FFA3C1933031F43F
:101EA0008091EB0080628093EB009BC19091EB00EE
:101EB00090619093EB0021E030E001C0220F8A9501
:101EC000EAF72093EA001092EA008091EB00886024
:101ED000EACF81111EC010914F021F778091E3005D
:101EE0008078812B8093E3008091E800877F809346
:101EF000E8000E94DD038091E80080FFFCCF809124
:101F0000E30080688093E30082E0111183E0809316
:101F100055028091E80083FF0AC08091E800877F26
:101F20008093E8008091EB0080628093EB00AA969A
:101F30000FB6F894DEBF0FBECDBFDF91CF911F91DA
:101F400008958058823028F720914F023091500236
:101F50002C3DE3E03E07A1F583E08A838AE2898392
:101F60004FB7F894DE01139620E03EE051E2E32FF4
:101F7000F0E050935700E49120FF03C0E295EF702A
:101F80003F5FEF708E2F90E0EA30C0F0C7968D93E0
:101F90009D932F5F243159F74FBF8091E800877FD1
:101FA0008093E8006AE270E0CE0101960E948F04FF
:101FB0008091E8008B778093E800ABCFC096E7CFA5
:101FC0008091510290915202432F55274330510581
:101FD00009F44AC078F54130510509F485C08BE514
:101FE00090E0E6E3F5E04230510509F092CF209110
:101FF000E800277F2093E80020915302309154029B
:102000008217930708F49C0140E02115310509F07F
:1020100070C041116EC08091E80082FDC9CF8091EF
:102020005502882329F2853019F28091E80083FF58
:10203000F2CFBECF4132510509F447C042325105BB
:1020400009F067CF8330910508F063CFFC01EE0FF4
:10205000FF1FE85AFE4F0190F081E02D8B5A9E4FF2
:10206000DC018C9190E01DC0332721303105E9F06F
:102070002115310579F022303105F9F02330310591
:1020800009F047CFE3EAF5E0E4918E2F90E0E3EA30
:10209000F5E007C0EFEDF5E0E4918E2F90E0EFED75
:1020A000F5E0009709F435CFA2CFEDECF5E0E4912F
:1020B0008E2F90E0EDECF5E0F4CFE1ECF5E0E4916B
:1020C0008E2F90E0E1ECF5E0ECCF8330910508F045
:1020D00020CF880F991FFC01E25AFE4F0190F0813A
:1020E000E02D89E090E083CF82E190E0E1E9F5E046
:1020F0007ECF80915502882309F45ACF853009F4A8
:1021000057CF8091E80083FD53CF8091E80082FD96
:1021100082CF8091E80080FF78CF9091F30080918A
:10212000F2002115310519F08830910550F041E099
:10213000089709F040E08091E8008E778093E800EE
:1021400064CF44914093F1003196215031090196BA
:10215000E8CF803809F0DDCE8091E800877F80935A
:10216000E80080914C028093F1007CCE8111D1CEA9
:1021700010914F02123008F0CCCE8091E800877F9A
:102180008093E80010934C020E94DD03112311F0AC
:1021900084E005C08091E30087FDFACF81E0809361
:1021A000550242E061EC81E00E94FC0342E261ECF6
:1021B00084E00E94FC0342E261EC82E00E94FC03A6
:1021C00042E260EC83E00E94FC03A3CE80914F02C8
:1021D000813009F09ECE81E0933009F080E0809359
:1021E0004B021092E9008091E800877F8093E8001D
:1021F0000E94DD038ECE6CEE7EEF90E080E00E94C8
:10220000342060E082E090E00E94162060E083E0ED
:1022100090E00E9416201092EF011092F0011092AF
:10222000F1011092F20160E084E090E00E9416203B
:1022300060E081E290E00E94162060E085E090E09E
:102240000E94162060E086E090E00E9416206FEF6A
:1022500087E090E00E94162040E050E0BA0188E05C
:1022600090E00E94282060E08DE090E00E9416201F
:1022700040E050E0BA0188E190E00E94282060E050
:1022800087E190E00E94162040E050E0BA018CE126
:1022900090E00E94282060E080E290E00E941620FA
:1022A00040E050E0BA018FE090E00E94282040E03A
:1022B00050E0BA0183E190E00C9428204F925F92A5
:1022C0006F927F928F929F92AF92BF92CF92DF9246
:1022D000EF92FF920F931F93CF93DF9300D000D024
:1022E0000F92CDB7DEB77C01FC0183819481892BED
:1022F00031F08081918189238F3F09F030C50F90A3
:102300000F900F900F900F90DF91CF911F910F9131
:10231000FF90EF90DF90CF90BF90AF909F908F9005
:102320007F906F905F904F9008950E941B0D182F23
:10233000682F89819A810E94420769817A81812F61
:102340000E947E0B8C01F7018281882309F4FCC472
:10235000980122513F452031310508F0CCC48FEF60
:1023600093E00E940820025156ECA52EBB24B394A2
:10237000882379F18091EA01877009F4C0CFF701D1
:102380008281882309F4BBCF82E00F900F900F90D9
:102390000F900F90DF91CF911F910F91FF90EF90D1
:1023A000DF90CF90BF90AF909F908F907F906F9075
:1023B0005F904F900C941F08A114F4E0BF06D1F277
:1023C000C5010E940820811101C001502FEFA21AFF
:1023D000B20A0111F1CF1C821B82662463944AE089
:1023E000542E85010F5F1F4FC5010E94082089836D
:1023F0001A82882309F4BECF9FEF980F933008F517
:102400008A83698232E0A30EB11CC8010E940820B1
:102410008B83882309F4AECF8E010F5F1F4FF80125
:1024200020812223F1F2213009F043C09181828181
:10243000913049F40E5F1F4F0E94FB090F5F1F4F41
:10244000EECF5801E9CF923029F40E5F1F4F0E9462
:102450009B08F4CF933029F40E5F1F4F0E9462084F
:10246000EDCF943019F00F5F1F4FE8CF0E5F1F4F75
:1024700030E020E0B8016F5F7F4FF8014181805369
:10248000990B8A30910550F021503109B8F28FE94B
:102490009FE00197F1F700C00000F6CF529EF001D7
:1024A000539EF00D11249C012E0F3F1F842F8B0192
:1024B000E1CFE22FF0E0E657FC4F7490822F869533
:1024C0008695869590E0FC01E658FC4F8490277035
:1024D000912C022E02C0959487940A94E2F7E1E0D1
:1024E0008E229924FC01E659FC4FC490D12C02C0E5
:1024F000D594C7942A95E2F7F1E0CF22DD24811428
:10250000910419F081EE0E949B08C114D10419F0C6
:1025100086EE0E949B08872D0E94FB09CD2819F0AA
:1025200086EE0E946208892809F488CF81EE96CF52
:1025300081E00E9437080E94E0071CCF81E00E94E2
:10254000FC07F9CF82E0F5CF053F2CE5120709F42F
:1025500065C008F45DC0063F9CE5190709F464C036
:10256000882309F40DC410928D010230ECE51E079A
:1025700008F442C10631FCE51F0738F098012A5FD4
:102580003C452930310508F037C10E94410B90933A
:10259000FD018093FC0100312CE5120709F4FBC01A
:1025A00008F085C008308CE5180709F4E6C008F08B
:1025B00057C00430ECE51E0709F4D3C008F040C052
:1025C00002302CE5120709F4C6C08091FC0182603C
:1025D00003301C4509F4C2C06091FC011091FD015B
:1025E00084E090E00E941620612F81E290E00E943A
:1025F00016200E94140EBECE07E225EE45EE68EDD1
:102600007CE59EC306E221EE40EE63EF7CE598C3D5
:1026100007E225EE44EE64EF7CE592C306E221EE8C
:1026200042EE65EF7CE58CC307E225EE46EE66EFF1
:102630007CE586C308E221E045EE69ED7CE580C3D8
:1026400006308CE5180709F494C08091FC0188607D
:1026500007301C4508F482C08091FC0180627EC076
:102660008091FC018D7F0C30ECE51E0709F476C0EB
:1026700070F48091FC018C600A302CE5120709F49B
:102680006DC008F47EC08091FC018E7F67C00E3063
:102690008CE5180709F47BC08091FC018B7F0F301B
:1026A0001C4508F45BC08091FC018F7E57C00B3F36
:1026B000ECE51E0709F459C030F503312CE512078B
:1026C00009F471C078F401318CE5180709F467C08A
:1026D00002311C4509F080CF0E94140E8091FC014C
:1026E0008F773CC00531ECE51E0709F464C008F49F
:1026F00078C08091FD0181600A3F1C4509F06CCFD4
:102700008093FD0169CF0F3F3CE5130709F44FC0EB
:1027100088F48091FD018D7F0D3F9CE5190781F3C1
:102720008091FD018E7F0E3F1C4550F38091FD018D
:102730008360E6CF0130FDE51F0709F45BC008F4B4
:1027400046C060E002301D4509F046CF8EE090E0C3
:102750000E94162041CF8091FC0181608093FC0192
:102760003BCF8091FC018460F9CF8091FD018260B4
:10277000C7CF8091FC018061F1CF8091FC01806422
:10278000EDCF0E94140E8091FC018068E7CF80910C
:10279000FC01877FE3CF8091FC018F7DDFCF8091AB
:1027A000FC018F7BDBCF8091FC01837FD7CF8091B1
:1027B000FD018C7FA5CF8091FC0182FB992790F9C8
:1027C00021E0922790FB82F990FB83F9C7CF80919B
:1027D000FD01982F909591708E7F892B90FB81F948
:1027E0008FCF0E94140E9091FC01892F97FB87F9DF
:1027F0008058B4CF61E0AACF06319CE5190709F0F3
:10280000CCC28091ED018A7A91E009F490E0909336
:102810008E0169E2811165E384E691E00E949A06E7
:102820000E94D506A7CD0E94140EEFEFF4E32CE032
:10283000E150F0402040E1F700C000000E941D067A
:102840000E94FB1097CDC8010E941A07D82EBCC267
:10285000212F2F70A22E107F19F0A29490EFA922A1
:10286000DD20C9F0AA2069F080E2800F883010F0E6
:1028700081100BC08091ED01A82AA092ED010E9469
:10288000D506802F0E949B0818C08091EC01A82AD1
:10289000A092EC01F4CF802F0E946208AA2069F078
:1028A000A094005E083010F081103BC08091ED01D3
:1028B000A822A092ED010E94D506EB2DE850FF0B57
:1028C000349710F40E941109CC2009F418CD80919E
:1028D000EA0180FD14CDF7011282859585958595D5
:1028E0000E943708C7010E945E118091EA01859518
:1028F000859585950F900F900F900F900F90DF9119
:10290000CF911F910F91FF90EF90DF90CF90BF90EC
:10291000AF909F908F907F906F905F904F900C94AE
:10292000FC078091EC01A822A092EC01C4CF312FCA
:102930003F70932E107F103219F0929480EF9822FE
:10294000882071F081E0881661F1DD20B9F1AA20BC
:1029500071F1F701858180FF94CF8F70858327C047
:10296000DD2091F09091EE01892D892BA11003C0FB
:102970000E948307A2CFE1E0AE12FACF981709F4C4
:102980009CCF8093EE0199CFA11006C00E94CF0684
:10299000892D0E94780791CFF1E0AF1609F48DCF11
:1029A000F5CFDD2031F025E02A1508F486CF892DFA
:1029B000DFCF34E03A1508F480CFEACFAA2041F304
:1029C000F9E38F1291C12FEF37EE83E021503040B1
:1029D0008040E1F700C0000087C1812F8695869571
:1029E000837061F0813009F068CFC8019370D11015
:1029F00002C090E080E00E948D075FCFC801937015
:102A0000D11002C090E080E00E94A30756CF802F33
:102A1000DD2029F00E94B5050E9449064ECF0E9494
:102A2000F004FACF812F837009F066C0D11045CF32
:102A3000802F829586958770880F880F602F6F7022
:102A4000462E512C712C612C082E04C0440C551CB0
:102A5000661C771C0A94D2F740E050E0BA0104FFEC
:102A60000FC04FE050E060E070E004C0440F551F1D
:102A7000661F771F8A95D2F740955095609570959F
:102A8000812F869586958370823019F1D8F4009154
:102A9000EF011091F0012091F1013091F2018130AC
:102AA00069F04429552966297729CB01BA016023A9
:102AB0007123822393230E945808FFCE402A512A73
:102AC000622A732ACB01BA016429752986299729BC
:102AD000F2CF44295529662977290091EF011091F9
:102AE000F0012091F1013091F201CB01BA01602790
:102AF000712782279327DFCF8695DD2011F0812F64
:102B00008170882309F4D9CE802F829586958770AD
:102B1000880F880F602F6F70462E512C712C612CFE
:102B2000082E04C0440C551C661C771C0A94D2F76E
:102B300040E050E0BA0104FF0FC04FE050E060E019
:102B400070E004C0440F551F661F771F8A95D2F7A7
:102B50004095509560957095812F869586958370E8
:102B6000823019F1D8F40091560210915702209149
:102B7000580230915902813069F04429552966295B
:102B80007729CB01BA0160237123822393230E940A
:102B9000D60793CE402A512A622A732ACB01BA0162
:102BA0006429752986299729F2CF44295529662950
:102BB00077290091560210915702209158023091C6
:102BC0005902CB01BA016027712782279327DFCFF3
:102BD0001F70DD2029F0812F0E943708802FC8CE7A
:102BE000802F0E947807812F0E94FC0766CE802FDD
:102BF00092EF891609F450C0981578F0E0EF8E1620
:102C000019F1F1EF8F1609F43FC0DD2009F467C018
:102C1000A11037CE812F8F713CC023EF821609F4AB
:102C200040C034EF8312F1CFDD2009F44DC01F7195
:102C3000812F0E943708E8E01E9FC00111248360A5
:102C40008093EA01812F25C0DD20C9F084E08A1538
:102C500008F433CE1F7161E070E080E090E004C0C2
:102C6000660F771F881F991F1A95D2F70091560299
:102C7000109157022091580230915902A4CF95E04B
:102C80009A1508F41ACEE6CF812F8F71DD2009F452
:102C9000ABCF0E94370811CE812F8F71DD20C9F391
:102CA000A3CF60E070E0CB01DD2009F470CF1F718D
:102CB00061E070E080E090E004C0660F771F881F3D
:102CC000991F1A95D2F763CF81E00E941F08F1E0A7
:102CD000FA1508F0F2CD82E00E941F08EECDAA207E
:102CE00039F0893309F46FCE802F0E946208E5CD58
:102CF000812F8F7179CF0031FFE51F0709F418CCC0
:102D000001312FE5120709F41DCC033F2CE5120712
:102D100009F478CC08F018CC083D9CE5190709F4B3
:102D20006BCC093DECE51E0709F484CC073DFCE5BE
:102D30001F0709F015CC06E221EE41EE67ED7CE5B8
:102D4000C7010E940E0A16CB00313FE5130709F4B4
:102D5000F5CB01319FE51907C1F682E0F0CB85E0A4
:102D6000DE01119601900D928A95E1F7F70122811B
:102D700089819A812111D9CA0E941A07182FDDCAA8
:102D800006311C4599F480918E0169E2811165E359
:102D900084E691E00E94700643CD01152CE51207F0
:102DA00009F441CD0E3D1C4509F44ACDF7010081DF
:102DB0001181882309F447CDC8010E941B0DD82E2C
:102DC000682FC8010E944207B8018D2D0E94910B07
:102DD0008C01882EF701A580A2943FE0A322D28027
:102DE000D1101092EC018091EA01877099F0DD20FA
:102DF00089F0812F807F803421F080E2800F88303D
:102E000048F082E00E941F088091EA018770CC247C
:102E1000C3948111C12CB12EB2942FE0B222FBE0F9
:102E2000FB1508F44ACDEB2DF0E0EC59FF4D0C9466
:102E3000D71F1F93CF93DF9380919401807FA9F4D4
:102E400080919101882389F08091C601D0919501EC
:102E500060918F0170919001A0919201B0919301C6
:102E6000C62FC72316E0D81304C0DF91CF911F915E
:102E7000089590E0109711F0CF3F19F401968770F4
:102E8000F2CF189F9001199F300D1124F901EA56D5
:102E9000FE4F41814713F2CF40814613EFCF42816D
:102EA0004111ECCF438154814A1B5B0B483C5105D7
:102EB00028F7809194018F70806180939401F901CB
:102EC000E556FE4F80818F70806180838FE891E0AE
:102ED0000E945E11DF91CF911F910C946E07AF920B
:102EE000BF92CF92DF92EF92FF920F931F93CF93F7
:102EF000DF93CDB7DEB761970FB6F894DEBF0FBE94
:102F0000CDBF8C0185E0F801DE011D9601900D9288
:102F10008A95E1F7F80180819181E2802FE8A22E65
:102F200021E0B22E609192017091930161157105BB
:102F300009F43EC130918F0140919001232F242349
:102F40002F3F09F435C1C380D480F0909101F60180
:102F5000E61BF70BFF2009F4FBC020919401522FD0
:102F6000507FE83CF10508F0BBC0511178C0FE2C41
:102F7000491321C038131FC0E1101DC02F702061FC
:102F800020939401C5010E945E1180919401F80183
:102F900085838F2D61960FB6F894DEBF0FBECDBF2F
:102FA000DF91CF911F910F91FF90EF90DF90CF9025
:102FB000BF90AF900895CD2829F0282F29232F3FC7
:102FC00009F014C120E0F22FF170DF2E20FF3DC088
:102FD0002091C6014091950156E0241315C08D87BC
:102FE0009E878D859E850E945D0D292F22952F70CD
:102FF0002230F8F0243020F59F70F9F0F801958127
:10300000907FD9F4D12C1FC030E0529FF001539F24
:10301000F00D1124EA56FE4F6181961306C06081BF
:10302000861303C06281E61210C02F5F3F4F2770E6
:10303000D4CF9F7011F0882329F3805E883010F37D
:10304000C8010E945E11FD2CA4CFEE2009F4A1CF8F
:1030500080919401816080939401F12C9ACF49135F
:1030600012C0381310C0E1100EC0F8012583C8014A
:103070000E945E1186E0F801AFE8B1E001900D9288
:103080008A95E1F786CF8D879E878D859E850E94E4
:10309000670D882309F1EE20F9F0809194018032C8
:1030A00070F020918F013091900138872F8319861D
:1030B000DB86CA868C87CE0107960E945E1186E069
:1030C000F801AFE8B1E001900D928A95E1F70E9416
:1030D0001917FF24F3945DCFC8010E945E11F9CF48
:1030E00051110AC08FE891E00E945E1186E0F5015F
:1030F00011928A95E9F7B1CF49130FC038130DC06B
:10310000E1100BC0F8012583C8010E945E1186E022
:10311000F50111928A95E9F73CCF8D879E878D85C1
:103120009E850E94670D8823B9F2EE20A9F2809156
:103130009401803220F220918F01309190013A83E6
:1031400029831B82DD82CC828E83CE010196B5CF8E
:10315000E83CF105E0F6FE2CEE2009F4BDCF491362
:1031600016C0381314C08091940180FD83CF982F2E
:10317000907F09F47FCFF8018583903F09F477CFE2
:10318000982F907F905F8F70892B858370CF8D876C
:103190009E878D859E850E94670D811190CF8091BD
:1031A0009401816080939401C8010E945E11F1CE68
:1031B000EE2009F491CF8D879E878D859E850E9494
:1031C000670DF82E882309F487CF86E0F801AFE871
:1031D000B1E001900D928A95E1F780918F01909175
:1031E00090010E945D0D0E941917D3CE21E02E257B
:1031F000EACE1F93CF93DF93CDB7DEB767970FB6B5
:10320000F894DEBF0FBECDBF4B8B5C8B6D8B7E8B7E
:103210008F8B1A8A198A85E0FE017396DE011D964E
:1032200001900D928A95E1F786E0FE013D96DE0160
:10323000179601900D928A95E1F7CE0107960E94AC
:103240006F17882389F016E08091C601909195014F
:10325000891349C067960FB6F894DEBF0FBECDBF85
:10326000DF91CF911F91089586E0FE013796DE0130
:10327000119601900D928A95E1F78A859B85892B9D
:1032800011F38F81988589238F3FE9F22091950171
:1032900030E0C9010196877099274091C60148170F
:1032A000190671F40E94140E109295011092C60135
:1032B00086E0EFE8F1E0DF011D928A95E9F7C3CFE0
:1032C00096E0929FD001939FB00D1124AA56BE4F55
:1032D000FE01319601900D929A95E1F78093950148
:1032E0000E946E07B0CF819FC00111248A569E4F65
:1032F0000E946F17882309F4ADCF8091C60190E03A
:103300000196877099278093C6019ECF1F920F92D6
:103310000FB60F9211242F933F934F935F936F93A8
:103320007F938F939F93AF93BF93CF93DF93EF934D
:10333000FF93D091E900DF708091EC00C82FC1703D
:1033400080FDC0E81092E9008091F000877F8093B3
:10335000F00078940E94290E1092E9008091F0000C
:1033600088608093F000CD2BCF70C093E900FF916F
:10337000EF91DF91CF91BF91AF919F918F917F910D
:103380006F915F914F913F912F910F900FBE0F90D2
:103390001F9018951F920F920FB60F9211242F9322
:1033A0003F934F935F936F937F938F939F93AF93CD
:1033B000BF93EF93FF938091E10082FF09C080915A
:1033C000E20082FF05C08091E1008B7F8093E100E5
:1033D0008091DA0080FF24C08091D80080FF20C057
:1033E0008091DA008E7F8093DA008091D90080FF8F
:1033F0009FC080E189BD82E189BD09B400FEFDCF97
:1034000081E08093550280912702811109C00E94BA
:103410003B030E942E048091E20084608093E200CE
:103420008091E10080FF17C08091E20080FF13C00F
:103430008091E2008E7F8093E2008091E2008061C3
:103440008093E2008091D80080628093D80019BCFC
:1034500085E0809355028091E10084FF2DC080912A
:10346000E20084FF29C080E189BD82E189BD89B580
:10347000982F917080FFFBCF8091D8008F7D809333
:10348000D8008091E1008F7E8093E1008091E2007E
:103490008F7E8093E2008091E20081608093E20061
:1034A00080914C02882309F449C084E0809355023E
:1034B0000E94140E0E9411098091E10083FF27C031
:1034C0008091E20083FF23C08091E100877F809399
:1034D000E10082E08093550210924C028091E1005D
:1034E0008E7F8093E1008091E2008E7F8093E200E6
:1034F0008091E20080618093E20042E060E080E041
:103500000E94FC038091F00088608093F000FF919E
:10351000EF91BF91AF919F918F917F916F915F914B
:103520004F913F912F910F900FBE0F901F901895C4
:1035300019BC109255021092270272CF8091E300BD
:1035400087FD93E090935502B3CFCDB7DEB7E297F6
:103550000FB6F894DEBF0FBECDBF84B7877F84BFA0
:103560000FB6F894A8958091600088618093600000
:10357000109260000FBE80E890E00FB6F894809340
:103580006100909361000FBE85B7806885BF85B7E5
:10359000806885BF0E943B030E942E048091E20058
:1035A00084608093E2007894809155028823A1F092
:1035B0001091E9001F709091EC00892F817090FDAF
:1035C00080E8182B1092E9008091E80083FD0E94AA
:1035D000290E1F701093E90082E084BD93E095BD31
:1035E0009AEF97BD80936E00A4E4B1E041E551E00D
:1035F00061E070E08D91E82FE295EF70F0E011A1AD
:103600008F709B0101C0220F8A95EAF7922F909547
:10361000912391A382A1822B82A34A175B0751F7C2
:10362000A1E5B1E045E551E061E070E08D91E82F62
:10363000E295EF70F0E011A18F709B0101C0220FA5
:103640008A95EAF7922F9095912391A382A1822BDC
:1036500082A34A175B0751F71092F5011092F4010B
:1036600010920202109201021092F7011092F601DC
:1036700010920402109203021092F9011092F801C4
:1036800010920602109205021092FB011092FA01AC
:1036900010920802109207020E94710A2FEF46E76B
:1036A00081E0215040408040E1F700C000000E94CE
:1036B000710A8091010280FF0BC080E00E94FC0D26
:1036C0006FEF7FEF90E080E00E9434200E941D06A3
:1036D00090E080E00E9410208C3E9E4F11F00E94EE
:1036E000FB1082E290E00E9408208A3D09F0E0C3CE
:1036F00083E290E00E9408208E3C09F0D9C384E266
:1037000090E00E9408208B3909F0D2C390E080E05D
:103710000E9410208C3E9E4F11F00E94FB1082E010
:1037200090E00E940820809316020E94410B909323
:10373000FD018093FC0183E090E00E940820682F47
:1037400070E090E080E00E94580880E091E0909363
:10375000FF018093FE0144244394512C62E3662EC2
:10376000712CFF24F3947CE2272EE0E13E2EEE2420
:10377000EA94F8E1AF2EB12C80915502853009F41E
:1037800052C10E94710AA1E0B2E0E7E1F2E010E06C
:1037900000E0602F8D919D9121913191281739077B
:1037A00009F480C12827392770E0CC24C394D12C98
:1037B000A60142235323452B09F46EC179A76AA7BA
:1037C00096012823392391E0232B09F490E09BA74D
:1037D0000E943D068160782F9DA78CA749A55AA518
:1037E0006BA58DA50E94F918000F111FF801E95E65
:1037F000FD4F80819181C826D926D182C08286E082
:10380000EFE0F2E0DE01119601900D928A95E1F76A
:10381000D0901102C0901202109113020091140274
:1038200010921102109212021092130210921402BE
:103830008D2D8C2909F448C080910D0290910E02C3
:103840000E942E069C0190910C02992309F44BC30F
:1038500023333105C8F19F3F19F09F5F90930C020D
:10386000DD2059F00E9495059FEF1D140CF491E0A6
:10387000899F802D112480931102CC2059F00E9441
:1038800095059FEF1C140CF491E0899F802D112465
:1038900080931202309111023323B1F02091120271
:1038A000222391F045EB3403C0011124992309F43C
:1038B0000FC19093110245EB24039001112433238F
:1038C00009F409C130931202812F802B09F448C0FA
:1038D00080910A0290910B020E942E069C01909109
:1038E0000902992309F4FAC225363105C8F19F3F30
:1038F00019F09F5F90930902112359F00E947305FC
:103900009FEF11160CF491E0899F802D1124809374
:103910001302002359F00E9473059FEF10160CF458
:1039200091E0899F802D112480931402309113021D
:103930003323B1F020911402222391F045EB34039C
:10394000C0011124992309F4C9C09093130245EBD7
:10395000240390011124332309F4C3C030931402CB
:103960008091110290911202892B90911302892B60
:1039700090911402892B11F00E94490686E0FE0105
:103980003196AFE0B2E001900D928A95E1F70E9486
:10399000110990911502891721F00E941109809355
:1039A000150280915502843009F0E6CE83E08093C1
:1039B000E9008091E80082FFDFCE8091E80090E08E
:1039C00085FF06C00E945A03882309F48DC091E048
:1039D0008091E8008B778093E800992309F4CCCE9E
:1039E000009125021091260289810115110509F423
:1039F00097C08E3F09F017C18A81833020F085502F
:103A0000833008F010C18A81823009F4F1C108F0D6
:103A1000C4C1882309F4D5C1813009F004C12982C9
:103A20001B821C8200C180915502843011F11092DA
:103A3000000280E40FB6F894A895A09260000FBE33
:103A40008093600083B7817F846083BF83B7816088
:103A500083BF7894889583B78E7F83BF0FB6F89421
:103A6000A89580916000886180936000109260004A
:103A70000FBE80914B02882309F47ECE0E94710A0A
:103A8000E1E0F2E081919191892B09F0FCC122E003
:103A9000E930F207B9F770CE7F5FCC0CDD1C7D30CA
:103AA00009F086CE0F5F1F4F0430110509F071CE6B
:103AB000EEA6EFA618AA0E943D068160782F9AAB69
:103AC00089AB4EA55FA568A98AA90E94F91897CE6F
:103AD000F0921102F0CEF0921202F6CEF0921302A2
:103AE00036CFF09214023CCF00E210E0FE01319696
:103AF0006F018091E80085FD0AC08091E8008B7716
:103B00008093E8000E945A03882399F360CF809144
:103B1000F100F60181936F010150110951F757CF60
:103B20008C3009F4ADC030F5843009F490C050F405
:103B3000823009F45EC008F07BC0813009F455C0C2
:103B4000E98271C0863009F498C008F48BC08A30CD
:103B500009F419C18B30A1F7CE0101960E94B5037B
:103B60002FEF41EE84E0215040408040E1F700C05B
:103B70000000ACCD803109F4B2C058F58E3009F4A4
:103B800085C008F47FC00C8110E00D31110508F0EC
:103B90004AC0CA80DB80DC24CD24DC24CE0101961F
:103BA0004C01080F191FC6018A539E4F08151905AD
:103BB000D1F1FAE3CF16F2E0DF0620F4F4016481DC
:103BC0000E941620FFEF8F1A9F0A2FEFC21AD20A07
:103BD000EACF823109F489C008F484C0833109F442
:103BE000ADC08E3F09F0ACCF0ECF1A8289E08B8337
:103BF0001AC08A81823009F468C18330A1F0813013
:103C000009F09ECF2FB7F8946091210270912202A3
:103C100080912302909124022FBF0E94DD1F6B83AD
:103C20007C838D839E83CE0101960E94B503A4CD33
:103C30008A81823009F084CF6B817C818D819E8165
:103C40000E94DD1F85E290E00E941620ECCF4C819F
:103C50006B818A810E944F0B9827892798279E8322
:103C60008D83E1CF2D813E813227232732274C815E
:103C70006B818A810E949B0DD6CF0E94C40DD3CF49
:103C80003A82D1CF82E08A838AE3B1CF0C8110E0FF
:103C90000D31110540F6CA80DB80DC24CD24DC2404
:103CA000CE0101964C01080F191FC6018A539E4F81
:103CB0000815190509F4B7CFFAE3CF16F2E0DF06CD
:103CC00058F40E940820F4018483FFEFCF1ADF0A22
:103CD0002FEF821A920AE9CFF4011482F6CF0E94E4
:103CE0008B0DA1CF84E08A839ECF0C8110E00D3133
:103CF000110508F098CFCA80DB80DC24CD24DC24B9
:103D0000CE0101964C01080F191FC6018696801638
:103D1000910609F488CFF0EACF16F1E0DF0658F4F7
:103D20000E940820F4018483FFEFCF1ADF0A2FEFEF
:103D3000821A920AEACFF4011482F6CFCC80D12CF9
:103D40004DE1C416D10408F06ECF0A811B81102703
:103D500001271027CE0101964C01C00ED11EC801CB
:103D600086960C151D0509F45ECF003AE1E01E07AA
:103D700020F4F40164810E941620FFEF8F1A9F0A3D
:103D80000F5F1F4FECCF80E00E94FC0D6FEF7FEFC5
:103D900090E080E00E94342046CF863009F463C072
:103DA000873009F46BC0853009F03DCF4EE150E01B
:103DB0006FEF70E0CE0103960E940120F9820A8322
:103DC00032CF88E0EBE0F1E0DE01919601900D92B8
:103DD0008A95E1F719821A821B821C8288E0FE0113
:103DE000B196DE01159601900D928A95E1F71BCFF1
:103DF0008C81682F70E0762F66278B81860F972F36
:103E0000911D092E000CAA0BBB0B25E0880F991FF2
:103E1000AA1FBB1F2A95D1F7AC01BD01405E5F4FC1
:103E20006F4F7F4F481759076A077B0708F4FBCE8F
:103E30008C32E1E09E07A105B10508F0F4CE4D32C9
:103E4000F1E05F076105710520F04CE251E060E0B0
:103E500070E0481B590BBC01665F7B4FCE01019699
:103E60000E94F81FE0CE50922602409225027092E6
:103E7000200260921F020E943D06D5CEF9820A837D
:103E800080911F02B4CE39BC82E189BD09B400FE25
:103E9000FDCF8091D8008F7D8093D8008091E00085
:103EA00082608093E0008091E00081FDFCCF64CCD3
:103EB00060E085E290E00E9416200E94C40D0E94FE
:103EC0008B0D81E00E94FC0D21CC85E290E00E94E8
:103ED00008201B821C821D828E83A5CE2D3231408C
:103EE00008F007CD3DCD2D32314008F0B6CCECCCFA
:103EF00078941F921FB61F9211248F939F93AF93B4
:103F0000BF938091210290912202A0912302B0914F
:103F100024020196A11DB11D8093210290932202DB
:103F2000A0932302B0932402BF91AF919F918F91F0
:103F30001F901FBE1F9018951F921FB61F9211242D
:103F40008F939F93AF93BF9380910002811113C011
:103F50008091210290912202A0912302B09124022B
:103F60004196A11DB11D8093210290932202A0933E
:103F70002302B0932402BF91AF919F918F911F9024
:103F80001FBE1F90189597FB072E16F4009407D0BC
:103F900077FD09D00E94E41F07FC05D03EF4909500
:103FA00081959F4F0895709561957F4F0895EE0F0D
:103FB000FF1F0590F491E02D099469279627692742
:103FC0007827872778270895AA1BBB1B51E107C0D4
:103FD000AA1FBB1FA617B70710F0A61BB70B881F99
:103FE000991F5A95A9F780959095BC01CD01089528
:103FF000FB01DC0102C005900D9241505040D8F702
:104000000895DC0101C06D9341505040E0F70895E0
:10401000F999FECF92BD81BDF89A992780B5089590
:10402000A8E1B0E042E050E00C943C20262FF99942
:10403000FECF92BD81BDF89A019700B4021639F007
:104040001FBA20BD0FB6F894FA9AF99A0FBE0895D8
:104050000396272F0E9417200E941620252F0E94CA
:104060001720242F0C9417200196272F0E94172029
:104070000C941620DC01CB01FC01F999FECF06C09F
:10408000F2BDE1BDF89A319600B40D924150504016
:10409000B8F70895F894FFCF760D760D7F0D7F0D5C
:1040A000810D7F0D7F0D7F0D760D760D860D7F0DB9
:1040B0007F0D860D0E0F360F890F360F890F690F92
:1040C000A10F890FA910B61028142814971497145B
:1040D000ED1407155D145D141215E815F715F715A5
:1040E000ED04BB099A099609920901E93F30BCF336
:1040F000631258818283E200E900EA00B500B6004D
:10410000B700CD008301CC008A0192019401210205
:10411000230224022502260227022A02B300B40049
:104120006F0070009190946697C634353632333103
:1041300093F4F5F6F74022BC8A016801AC0048050B
:04414000610581058F
:00000001FF
